:020000040800F2
:10000000B045002089010008FB0A00086D020008C5
:10001000F90A000809050008D70B000800000000D5
:100020000000000000000000000000009B0100082C
:100030000B05000800000000F7010008FD0A000899
:10004000A3010008A3010008A3010008A301000800
:10005000A3010008A3010008A3010008A3010008F0
:10006000A3010008A3010008A3010008A3010008E0
:10007000A3010008A3010008A3010008A3010008D0
:10008000A3010008A3010008A3010008A3010008C0
:10009000A3010008A3010008A3010008A3010008B0
:1000A000A3010008A3010008A3010008A3010008A0
:1000B000A3010008A3010008A3010008A301000890
:1000C000A3010008A3010008A3010008A301000880
:1000D000A3010008A3010008A3010008A301000870
:1000E000A3010008A3010008A301000800F002F822
:1000F00000F03AF80AA090E8000C82448344AAF188
:100100000107DA4501D100F02FF8AFF2090EBAE885
:100110000F0013F0010F18BFFB1A43F0010318473B
:100120001C2800003C280000103A24BF78C878C181
:10013000FAD8520724BF30C830C144BF04680C60ED
:10014000704700000023002400250026103A28BF35
:1001500078C1FBD8520728BF30C148BF0B60704739
:100160001FB51FBD10B510BD00F090F91146FFF787
:10017000F7FF00F0C4F900F0AEF903B4FFF7F2FFA7
:1001800003BC00F0B5F90000094880470948004762
:10019000FEE7FEE7FEE7FEE7FEE7FEE7FEE7FEE737
:1001A000FEE7FEE704480549054A064B7047000094
:1001B000D50B0008ED000008B03F0020B04500203E
:1001C000B0410020B0410020EFF3108072B67047BC
:1001D00080F310887047324A1368012B04D04FF027
:1001E000010313602F4A10602F4A11602F484FF00F
:1001F000805101607047EFF3108272B628480168A1
:1002000091B14FF0000101602648016829B1EFF378
:10021000098121E9F00F0068016023490968096834
:10022000B1E8F00F81F3098882F310884EF0040ED4
:1002300070471D4908601B494FF0000008601849CD
:100240004FF0010008601A481A49D0F8002041EA2E
:100250000201016015484FF08051016016480068A6
:10026000006880F3088861B662B670471EF0040F1C
:100270000CBFEFF30880EFF3098020E9F00F40F89E
:1002800004ED1EF0040F0CBF80F3088880F309888A
:1002900000B501F061FA5DF804EB4EF0040E704712
:1002A000B4000020AC000020B000002004ED00E00D
:1002B00020ED00E00000FFFF08ED00E010B5431C5A
:1002C00002E010F8011B71B18107FAD14FF0013241
:1002D00002C88C1A8C4314EAC211F9D0C01A0A065B
:1002E00003D0C01E10BDC01A10BD0A0401D0801E6C
:1002F00010BD0902FCD0401E10BD40EA010370B5DC
:100300009B072ED14FF00136042A2AD308C810C902
:100310009D1B9D43121F15EAC61517D0D8B2E1B236
:10032000401A50EA056110D198B2A1B2401A50EAC1
:1003300005410AD123F07F4024F07F41401A50EA62
:10034000052102D1180EA0EB146070BDA342DBD0D2
:1003500018BA21BA884201D9012070BD4FF0FF3090
:1003600070BD0AB9002070BD10F8013B11F8014BB7
:1003700063B1A3420AD1521E08D010F8013B11F814
:10038000014B1BB1A34201D1521EEDD1181B70BD10
:1003900010B5203AC0F00B80B1E81850203AA0E820
:1003A0001850B1E81850A0E81850BFF4F5AF5FEA54
:1003B000027C24BFB1E81850A0E8185044BF18C907
:1003C00018C0BDE810405FEA827C24BF51F8043BAE
:1003D00040F8043B08BF7047D20728BF31F8023B02
:1003E00048BF11F8012B28BF20F8023B48BF00F896
:1003F000012B70474FF000020429C0F0128010F06A
:10040000030C00F01B80CCF1040CBCF1020F18BFF0
:1004100000F8012BA8BF20F8022BA1EB0C0100F083
:100420000DB85FEAC17C24BF00F8012B00F8012B56
:1004300048BF00F8012B70474FF0000200B513468B
:1004400094469646203922BFA0E80C50A0E80C50F4
:10045000B1F12001BFF4F7AF090728BFA0E80C50A5
:1004600048BF0CC05DF804EB890028BF40F8042B9E
:1004700008BF704748BF20F8022B11F0804F18BF0B
:1004800000F8012B7047704770477047754600F0C1
:100490002BF8AE4605006946534620F00700854616
:1004A00018B020B5FFF77EFEBDE820404FF00006F3
:1004B0004FF000074FF000084FF0000B21F007014C
:1004C000AC46ACE8C009ACE8C009ACE8C009ACE88F
:1004D000C0098D46704710B50446AFF30080204632
:1004E000BDE81040FFF749BE00487047503F00206C
:1004F00001491820ABBEFEE726000200704710B588
:1005000001F0A7FF002010BDFEE77047014880689A
:100510007047000000000020074810B5016841F056
:1005200010010160032000F067F8002000F006F8D9
:1005300000F024F8002010BD0020024070B50D4DE1
:1005400004464FF47A712878B1FBF0F00A49096843
:10055000B1FBF0F000F0AEFA48B9102C07D200223F
:100560002146501E00F028F800206C6070BD01206C
:1005700070BD0000000000200C0000200C4808B5F1
:10058000816941F001018161816901F001010091FE
:10059000C16941F08051C161C06900F08050009094
:1005A0000448416821F0E06141F08061416008BD8C
:1005B0000010024000000140F0B40E4B1B680C46D6
:1005C000C3F30223C3F10705042D00D90425191D27
:1005D000072901D2002300E0DB1E012606FA05F1FF
:1005E000491E214099409E40761E16403143F0BC82
:1005F00000F0F2BA0CED00E0064900F007020868CE
:100600004FF6FF03184040EA0220034A10430860F7
:10061000704700000CED00E00000FA052DE9F047FE
:100620000F46050061D0434E306800F00700B84225
:1006300009D2306820F0070038433060306800F09D
:100640000700B84251D128683B4C810712D54007BA
:1006500003D5606840F4E06060602878000703D547
:10066000606840F4605060606068A96820F0F00045
:10067000084360602878C00728D06868012810D037
:100680002168022810D0890700292EDA616821F03C
:10069000030101436160FFF739FF804641F2883969
:1006A0000DE021688903EFE78901EDE7FFF72EFFF1
:1006B000A0EB0801494502D90320BDE8F087606836
:1006C000696800F00C00B0EB810FEFD1306800F0EA
:1006D0000700B8420BD9306820F00700384330607B
:1006E000306800F00700B84201D00120E5E7287823
:1006F000400705D56068E96820F4E0600843606061
:100700002878000706D56068296920F4605040EA1F
:10071000C100606000F018F86168084AC1F3031175
:10072000515CC8400649086006480068FFF706FFAC
:100730000020C2E70020024000100240F024000820
:100740000C000020040000200E4A51680E4801F001
:100750000C03042B11D0082B0FD10C48C1F3834399
:10076000C903C05C0AD55168084AC1F34041921ED2
:10077000515C054A5043B0FBF1F0704704494843CF
:10078000704700000010024000127A00E0240008C8
:1007900000093D002DE9F84F040070D02078C04DCD
:1007A000C00749D06868C0F38100012807D0686895
:1007B000C0F38100022809D16868C00306D5286803
:1007C000800339D560680028E7D035E06068B0F56F
:1007D000803F0BD010B1B0F5A02F11D0286820F4C5
:1007E00080302860286820F4802002E0286840F4E7
:1007F00080302860606890B1FFF788FE06460AE006
:10080000286840F480202860F0E700BFFFF77EFEF4
:10081000801B642873D828688003F7D50CE0FFF7A5
:1008200075FE064605E000BFFFF770FE801B6428DA
:10083000F0D828688003F7D420789A4E80074FF0CC
:1008400001094FF0000839D5686810F00C0F07D087
:100850006868C0F38100022809D16868C00306D423
:100860002868800714D52069012808D110E0206984
:10087000B0B1C6F80090FFF749FE074605E00AE16F
:10088000FFF744FEC01B0228C4D828688007F7D5AC
:100890002868616920F0F80040EAC10028600DE096
:1008A000C6F80080FFF732FE074604E0FFF72EFE91
:1008B000C01B022823D828688007F7D420780007B7
:1008C0002CD57948A169D9B1C0F80090FFF71EFE78
:1008D000074604E0FFF71AFEC01B02280FD8686A1B
:1008E0008007F7D571484FF4FA510068B0FBF1F07A
:1008F000009000BF0098411E0091FAD20EE080E007
:10090000C0F80080FFF702FE074604E0FFF7FEFD97
:10091000C01B022875D8686A8007F7D42078400782
:1009200060D5E8690027C00008D4E86940F080502D
:10093000E861E869012700F0805000905C48016898
:10094000C90513D40168834641F480710160FFF743
:10095000DDFD824606E000BFFFF7D8FDA0EB0A00F0
:1009600064284ED8DBF80000C005F5D5E068012802
:100970000AD008B1052813D0286A20F001002862A7
:10098000286A20F0040002E0286A40F00100286292
:10099000E06841F2883B98B1FFF7B8FD82460BE072
:1009A000286A40F004002862EEE700BFFFF7AEFDC2
:1009B000A0EB0A0159455AD8286A8007F6D50CE001
:1009C000FFF7A4FD824605E0FFF7A0FDA0EB0A01BA
:1009D00059454CD8286A8007F6D41FB1E86920F041
:1009E0008050E861E06988B36968C1F38101022938
:1009F00044D00228C6F8608004D0FFF787FD044683
:100A000038E034E0FFF782FD074604E0FFF77EFDA3
:100A1000C01B02282BD828688001F7D4206AB0F5C3
:100A2000803F05D16868A16820F400300843686001
:100A3000D4E908010843696821F474110843686027
:100A4000C6F86090FFF762FD044606E025E000BFAF
:100A5000FFF75CFD001B022809D828688001F7D544
:100A60001BE000BFFFF752FD001B022802D9032044
:100A7000BDE8F88F28688001F4D40EE00128F7D093
:100A80006868226A00F48031914204D1616A00F4FE
:100A90007010884201D00120EAE70020E8E700005A
:100AA0000010024000004242800442420C0000203C
:100AB0000070004010B5401EB0F1807F01D30120CE
:100AC00010BD4FF0E02460610F21601700F084F842
:100AD0000020A06107202061002010BD054808B556
:100AE000816941F020018161806900F0200000905F
:100AF00008BD000000100240FEE7FEE710B500F060
:100B000061FE01F01BFBBDE8104000F069BE30B58E
:100B10008FB028216846FFF78FFC14210AA8FFF741
:100B20008BFC01210804CDE9001000240294022569
:100B30000491CDE907504FF4E01009906846FFF7A3
:100B400029FE08B172B6FEE70F20CDE90A054FF481
:100B50008060CDE90C4002210AA80E94FFF75EFDEB
:100B6000002801D072B6FEE70FB030BD144910B5B1
:100B70004868144A10F00C03134803D0042B01D02A
:100B8000082B09D002604968104AC1F30311515C77
:100B90000268CA40026010BD4A684B6802F47012D5
:100BA0004FF0020413F4803F04EB924202D04B68F2
:100BB0009B0301D5064B00E0024B5A43E2E70000DD
:100BC0000010024000127A000C000020F0240008FF
:100BD00000093D007047FEE70907090E002804DB05
:100BE00000F1E02080F80014704700F00F0000F1E1
:100BF000E02080F8141D7047002807D00F4910F03E
:100C0000FF0F05D0C0B2085C401C70470020704741
:100C100010F47F4F04D0C0F30720085C0930704700
:100C200010F47F0F04D0C0F30740085C1130704708
:100C300001EB1060007819307047000000250008B3
:100C4000F0B589B004460D461646002100E0491C67
:100C5000635C202B03D0092B01D0A942F7D3C9B183
:100C6000204600F0CBFB0746C7B10021009101915F
:100C70000291039104910591069107916A462946D4
:100C8000204600F005FC68B16946B847306009B0FD
:100C90000020F0BD09B04FF0FF30F0BD09B04FF0BB
:100CA000FF30F0BD09B04FF0FF30F0BD70B582B03D
:100CB00011469C46089E099D069B079A044604F12E
:100CC0001400406000602162C4F824C0A362E262A4
:100CD0002321184600F06DFEE16AA06A104B08441B
:100CE000021F616A206A00F04DFDE06184F8366001
:100CF00084F835600020A063E5632564206384F8F0
:100D0000340020676067009001902346054A214621
:100D100004F1440001F0EFFA02B0002070BD0000C1
:100D2000A91E00089B200008DDF800C02CF0010C73
:100D300080F809C0C161026200218162436200EB58
:100D4000C102143252601260491C0129F7DB70475E
:100D500070B50446FFF738FA0546216F09B1204601
:100D600088472846BDE87040FFF732BA034801784B
:100D700001780178017801780078704729ED00E06A
:100D800010B500F002FA002010BD10B500F03CFADA
:100D9000002010BD00F0D2BC0449496991F821201F
:100DA00060F3410281F8212070470000100000200C
:100DB000014A1060516070471000002030B583B0C8
:100DC00015491648FFF7F4FF7821012000F0FCFBDD
:100DD000134D6861D8B10A201521009101904FF49C
:100DE000806300220F4910A001F031F8044600236F
:100DF0001A460FA1686900F02DFF0120FFF7CCFF14
:100E000014B1204601F012F903B0002030BD03B048
:100E10004FF0FF3030BD00003C2900087C2800085E
:100E200010000020390E0008747368656C6C0000B7
:100E30007368727800000000714E706990F821109C
:100E400041F0010180F8211001274FF00208002530
:100E5000FFF7A0FF04462000FAD41B2C07D07369CB
:100E600093F82000012806D002280CD015E0706904
:100E700080F82070ECE75B2C02D083F820500CE067
:100E800083F82080E4E783F82050412CE0D0422C06
:100E9000DED0442C2ED0432C34D0002CD8D0FF2CC4
:100EA000D6D0092C38D07F2C4BD0082C49D00D2C13
:100EB00074D00A2C72D0B3F87200502801D3A3F872
:100EC0007250B3F87400B3F8721088427BD20A1AD9
:100ED00003F1220101442333184400F04FFD7069EF
:100EE000B0F8741022300C547169B1F87400B1F884
:100EF00072106AE0B3F874000028A9D0401EA3F86D
:100F00007400A5E7B3F87400B3F8721088429FD25A
:100F1000401CA3F874009BE70020B3F8741000E0B5
:100F2000401C8142FCDC03F1220001F0A7FA706949
:100F30002230FFF7C3F97169A1F87200A1F87400BB
:100F400086E7B3F87400002882D0B3F87210491E07
:100F500089B2A3F87210401E80B2A3F874008142D7
:100F600018D90A1A03F1230101442233184400F06E
:100F700005FD7069B0F8721022300D547169B1F836
:100F80007400B1F8721000E0401C8142FFF660AFBF
:100F9000FAE703E003F122000D5459E700F076FA76
:100FA000012805D17069B0F87210223000F006FAFD
:100FB000706950212230FFF71DFA7069A0F8725055
:100FC000A0F8745044E703E0401C8142FCDC02E0DE
:100FD00003F122000C547069B0F87210491C89B2F8
:100FE000A0F87210B0F87420521CA0F87420502998
:100FF000FFF42EAFA0F87250A0F8745028E700005C
:101000001000002010B50B4C2068206810F0804FB5
:101010000ED0E01E007808B1FFF7A8FE0648007861
:1010200008B100F073F90548008808B101F048FAEA
:10103000206810BD2CED00E028ED00E02AED00E076
:101040000020704770B508480468084D286884423D
:1010500008D2022206A12068FFF74FF90C34286855
:101060008442F6D3002070BD100000201400002040
:101070005F5F00002DE9F04104460D4616461F460D
:10108000284600F01BFD001D206025726660E760A9
:1010900000202061BDE8F0812DE9F0410D460026D9
:1010A00000212961E968002909D0297A39B12F681E
:1010B00040B10446FFF788F8014636B113E000203E
:1010C000BDE8F0813C460126F4E7A4F10C002A7A41
:1010D000007A20F08000904205D00846FFF778F8AB
:1010E0000020BDE8F081002668682468BC4201D178
:1010F000002405E0761C40F8044BEA68B242F4D1C3
:101100000846FFF765F82E612046BDE8F081F0B58E
:101110008DB0002708236A46052108A8FFF7AAFF1B
:101120000820401EFDD26E4608A93846FFF7B4FFDE
:10113000074600240C98002822DD56F82400A0F170
:101140000C05FFF741F8297A9DF8282021F080014D
:10115000914202D0FFF73CF80EE0FFF739F805F1B5
:1011600014010868884201D1012100E0002119B969
:1011700005F1140001F08EF9641C0C98A042DCDC2F
:10118000002FD1D10DB00020F0BD7047F0B58DB06B
:10119000002708236A46022108A8FFF76BFF0820F2
:1011A000401EFDD26E4608A93846FFF775FF074678
:1011B00000240C98002822DD56F82400A0F10C052C
:1011C000FFF702F8297A9DF8282021F0800191424A
:1011D00002D0FEF7FDFF0EE0FEF7FAFF05F1140165
:1011E0000868884201D1012100E0002119B905F108
:1011F000140001F04FF9641C0C98A042DCDC002FB5
:10120000D1D10DB00020F0BD2DE9F041ACB00026E9
:1012100008231EAA012126A8FFF72CFF0820401E44
:10122000FDD21EAD26A93046FFF736FF0646002444
:101230002A98002825DD55F82400A0F10C07FEF7B8
:10124000C3FF8046387A9DF8A01020F080008842C5
:1012500003D04046FEF7BCFF0FE0782239466846CF
:10126000FFF796F84046FEF7B3FFB96A08782328DF
:1012700003D1491C08782328FBD0641C2A98A0427B
:10128000D9DC002ECED12CB00020BDE8F081F0B525
:101290008DB0002708236A460A2108A8FFF7EAFE56
:1012A0000820401EFDD26E4608A93846FFF7F4FE1E
:1012B000074600240C98002815DD56F82400A0F1FC
:1012C0000C05FEF781FF297A9DF8282021F0800186
:1012D000914202D0FEF77CFF01E0FEF779FF641C2B
:1012E0000C98A042E9DC002FDED10DB00020F0BD4B
:1012F000FFF712F9FFF70BFCFFF7F0FBFEE710B565
:1013000000F080F9BDE81040FFF7F2BF0348017814
:1013100001780178017800787047000028ED00E03E
:101320002DE9F04781460025002699F800000028A5
:101330000ED01E480468DFF87880D8F80000844298
:1013400029D206221BA12068FEF7D7FFF0B905E0DD
:10135000BDE8F0470021084600F07EB82068871DF0
:101360004846FEF7ABFF024639464846FEF7C5FF42
:1013700060B925B93E463046FEF7A0FF054639461E
:10138000304601F08EF8A84200DA05460C34D8F851
:1013900000008442D5D3002E06D02A463146484666
:1013A000BDE8F04700F0CDBCBDE8F087100000209C
:1013B000140000205F5F636D645F000038B5044671
:1013C00001E0641C491E21B120782028F9D00928A9
:1013D000F7D029B16A462046FFF732FC10B104E08D
:1013E000002038BD009838BD641C2078202801D02A
:1013F0000028F9D100202070401E38BD2DE9F047AB
:1014000081468846002610480468104F3868844298
:1014100015D208F1060506220DA12068FEF76DFF22
:1014200048B920684246801D4946FEF766FF10B95C
:101430002068405D30B10C3438688442EBD33046CC
:10144000BDE8F087A668FAE710000020140000202D
:101450005F5F636D645F000070B508480468084D05
:101460002868844208D2062206A12068FEF745FFBC
:101470000C3428688442F6D3002070BD1000002090
:10148000140000205F5F636D645F000001207047FF
:1014900030B400239C46002946D9002502E005709F
:1014A000401C5B1C0478202C01D0092C01D18B42FC
:1014B000F5D3BCF1080F05D3002000E0401C6045C7
:1014C000FCD331E08B422FD20478222C04D042F896
:1014D0002C000CF1010C1CE0401C5B1C42F82C00A1
:1014E0000CF1010C08E05C2C04D14478222C01D1D1
:1014F000401C5B1C401C5B1C0478222C01D08B42DE
:10150000F1D38B4210D20570401C5B1C0AE0401CDA
:101510005B1C0478202C03D0092C01D08B42F6D31D
:101520008B4201D28B42BDD330BC60467047000075
:1015300010B4DFF860C04168DCF80020114402F10B
:101540000803884210D04C8874B9DCF80440A142EA
:101550000AD0DCF808408C4201D1CCF808004C6875
:1015600044604968841ACC508168114481420FD08C
:101570004C88002C0CD1DCF80840844201D1CCF816
:101580000810D0F804C0C1F804C04068891AC150DE
:1015900010BC70473000002000B583B014200A2131
:1015A000009101904FF480730022044904A000F0E0
:1015B0004EFC03B05DF804EB00F038BDFF120008EC
:1015C0006D61696E0000000070B54843044600F08C
:1015D0004DF90546280003D02246002100F0E9F924
:1015E000284670BD70B5054C054DAC4204D220684C
:1015F0008047241DAC42FAD370BD00006C2800085F
:101600007028000870B5054C054DAC4204D2206826
:101610008047241DAC42FAD370BD0000702800083A
:101620007828000810B5FEF7CFFD04494A88521CFF
:101630004A80BDE81040FEF7CBBD000088000020C6
:1016400010B5FEF7C1FD0B4C6188491E09B26180DF
:1016500000290ADC00216180FEF7BAFD60680028DD
:1016600007D0BDE8104000F071BABDE81040FEF7A9
:10167000AFBD10BD8800002070B5002825D0134DE7
:101680002968884221D3696888421ED2A0F10C04DF
:101690004FF0FF310E4800F01AFB002060804FF43D
:1016A000F5502080A868844200D2AC602968606848
:1016B000611A401A2969081A28612046FFF738FF85
:1016C000BDE87040024800F0D6BA70BD300000207E
:1016D000303E002000487047B800002000487047A6
:1016E000B83C002010B5FEF717FFFFF710FAFFF720
:1016F0003DFA10484FF47A710068B0FBF1F0401EDB
:10170000B0F1807F09D24FF0E02148610A4AF02011
:1017100010700020886107200861FFF763FFFFF762
:10172000DDFF0446FFF7D6FF2146BDE8104000F07C
:101730001DBB00000C00002023ED00E00448016800
:1017400011F0200FFBD003480068C0B270470000C2
:10175000003801400438014010B5044608480168CB
:10176000002903D020468847002808D0207810F0B0
:10177000040F01D0FFF748FDFFF744FCFEE710BD62
:10178000A800002030B40546101D20F00700A0F18D
:10179000400420460022DFF828C040F822C0521C36
:1017A000102AFAD30162002141628162C1620163A1
:1017B000436385634FF08071C163204630BC70473E
:1017C000EFBEADDE10B5FEF7FFFC04490A78521CEF
:1017D0000A70BDE81040FEF7FBBC00002C000020A2
:1017E00010B5FEF7F1FC04490A78521E0A70BDE8F4
:1017F0001040FEF7EDBC00002C00002070B5044640
:101800000D461646284600F026FC16B1012E2BD1B7
:1018100008E005F11400616808606168416060607B
:10182000046021E02068A04214D095F83510A0F1A2
:10183000140292F83530994209D2143205F114039A
:1018400051680B605168596053601A6002E000688B
:10185000A042ECD1A04207D105F1140061680860F4
:101860006168416060600460002070BD2DE9F04750
:10187000002809D0C01C20F003053E4EF0688542C8
:1018800005D90020BDE8F0870020BDE8F0870C2DC9
:1018900000D20C254FF0FF31374800F018FAD6F887
:1018A00008C03168ACEB0100F7687B1B83425BD951
:1018B0000C186288002A54D16268121A0C3AAA42A3
:1018C0004FD3626805F11803121A0C3A4FF0010960
:1018D0004FF4F5589A4223D3421902F10C03CA1867
:1018E000A2F800804FF0000AA2F802A0D4F804A0E9
:1018F000C2F804A090606360A4F80290506807F1F9
:101900000C02904202D001F1080283503069324645
:1019100028440C303061536983420DD250610BE092
:10192000A4F802906068621A801A3269104430612B
:101930007269824200D27061A4F80080644503D0CD
:1019400008E040680844B060B068428812B172682C
:101950009042F6D1084800F08EF904F10C00BDE881
:10196000F08760688342A3D8034800F084F9002020
:10197000BDE8F08730000020303E002003461846C6
:1019800081420DD201EB020C9C4509D99918521ED7
:1019900005D31CF8013D01F8013D521EF9D27047F4
:1019A000521EFCD311F801CB03F801CB521EF9D221
:1019B0007047034601F0FF0C042A1CD310F0030FFC
:1019C00019D101464CEA0C2343EA0343102A0AD3F7
:1019D00041F8043B41F8043B41F8043B41F8043B27
:1019E000103A102AF4D2042A04D341F8043B121FFF
:1019F000042AFAD20B46511E05D30CF0FF0203F85D
:101A0000012B491EFBD270472DE9F04106460F46D7
:101A1000304600F053F80546E868FFF727FF044614
:101A2000E4B100212046EA68FFF7C3FF26720020D8
:101A3000607208223946204600F083F9FEF7C4FBA5
:101A4000291D04F10C020B685A600B6813600A60D0
:101A50005160FEF7BDFB2046BDE8F0810020BDE8E7
:101A6000F08110B5044600202072FEF7ADFB04F1B2
:101A70000C010B684A685A604B680A681A60496032
:101A80000960FEF7A5FB2046BDE81040FFF7F4BD56
:101A900010B5044600202072FEF796FB014604F1C3
:101AA0000C00036842685A60436802681A6040602C
:101AB0000060BDE810400846FEF78ABB0021074AD7
:101AC00002EB01131B78834202D102EB0110704735
:101AD000491C0429F4DB0020704700004800002066
:101AE0002DE9F04105460E4617463046FFF7E6FF62
:101AF0000446FFF797FD6068211D884202D0006808
:101B00008842FCD1FFF79CFD46F080002872082235
:101B10003946284600F015F9FEF756FB0246201D0F
:101B200005F10C010368596003680B6001604860AF
:101B3000BDE8F0411046FEF74BBB007A10F0800F75
:101B400001D00120704700207047000070B5FEF7FB
:101B50003BFB0546134C6088A8B9A068FFF74CF81A
:101B6000421E114850F83200A0F1140163689942F6
:101B700009D0227061600D48007848B11C3103F132
:101B80001C00FEF728FB2846BDE87040FEF720BB8E
:101B90001C3103F11C00FEF71EFB2846BDE8704017
:101BA000FEF716BB88000020503E00202C000020CD
:101BB00010B50446FEF708FB024694F8340020F006
:101BC0000F0040F0010084F8340094F835000A4911
:101BD00001EBC00104F114004B6818604B684360CE
:101BE000486001600548A16B836819438160BDE8C6
:101BF00010401046FEF7ECBA503E0020880000204E
:101C000010B50446FEF7E0FA024604F114010B6831
:101C1000486858604B68086818604960096094F823
:101C200035000A4901EBC0000168814201D1012061
:101C300000E0002028B10648A16B836823EA010177
:101C40008160BDE810401046FEF7C2BA503E002049
:101C50008800002070B5044615461E460A4602213B
:101C60002046FFF73DFF04F1140149600960A58398
:101C70006672002070BD70B504460025FEF7A4FA18
:101C8000064604F114000168814201D1012000E000
:101C9000002038B1A08B4FF6FF7188420DD2401C56
:101CA000A08304E0A1F1140000F095F9012530466D
:101CB000FEF78EFA012D06D007E03046FEF788FACF
:101CC0006FF0020070BDFFF741FF002070BD73B5DB
:101CD0000446FEF779FA0646A08B28B1401EA08381
:101CE0003046FEF775FA21E0019810B300F098F93C
:101CF000054600202863627A294604F11400FFF7A4
:101D00007DFD0198002809DD01AA002105F14400AC
:101D100000F0A4FA05F1440000F002FB3046FEF7A3
:101D200057FAFFF713FF286B002800D1002002B0FC
:101D300070BD3046FEF74CFA02B06FF0010070BD86
:101D40007047002A09D0034611F801CB03F801CBF4
:101D5000BCF1000F02D0521EF6D17047511EFCD0CC
:101D6000002203F8012B491EFBD1704710B5C01C9F
:101D700020F0030021F0030118291FD9A1F1180256
:101D800082421BD30E4C091A1839E16020604FF4CF
:101D9000F55202800C314160002383604380436828
:101DA000184460600280012242804160816000230B
:101DB00004A10648FFF74EFF2068A06010BD000098
:101DC000300000206865617000000000303E002097
:101DD0000B4B4FF0000CA3F802C00020094A02EBA5
:101DE000C00149600960401C2028F8DB1F201870E2
:101DF000C3F804C0C3F808C00348406000607047DF
:101E000088000020503E00209400002010B5074CB0
:101E1000A068FEF7F1FE401E054951F83000143865
:101E20006060BDE810401C30FEF703BA8800002057
:101E3000503E00200020044A02EBC00149600960C6
:101E4000401C0028F8D07047A000002070472DE902
:101E5000F04784B080460D9D0C9C894692461E46F4
:101E600041460120FFF7D0FD0746380011D030462B
:101E7000FFF7FCFC88B1009053464A464146019664
:101E8000039502943846FEF711FF04B03846BDE8CA
:101E9000F08704B00020BDE8F0873846FFF7E1FD89
:101EA00004B00020BDE8F08770B515480468FEF75F
:101EB0008BF905462046FEF74BFF2046FFF7A0FEB4
:101EC000042084F8340004F1440000F0F1F92046C5
:101ED000FFF733FE01280FD00A4904F114000A6805
:101EE00050600A68026008604160FFF72FFE2846D4
:101EF000BDE87040FEF76CB92046FFF7C9FDF4E776
:101F00008C0000209400002000F002F8FCE70000A4
:101F100070B5134C17E0012100E00021D9B1216810
:101F2000A1F114060A68486850604A6808681060A1
:101F300049600960B06AFFF79FFB3046FFF791FDEB
:101F40002846FEF745F9FEF73FF9054604490868BB
:101F50008842E2D0DFE72846BDE87040FEF738B996
:101F60009400002000B585B02020C2001F21084B3E
:101F700000930192029103900023064A06A10848AB
:101F800000F010F805B006485DF804EB00F04EB81C
:101F9000303D0020091F00087469646C6500000072
:101FA000B83C00202DE9F04F85B00EAC8146F0CC56
:101FB000884692469B46424601214846FFF790FDDF
:101FC0008DE8F0005B46524641464846FEF76EFEFD
:101FD00005B0BDE8F08F70B5044694F8340000F009
:101FE0000F00022802D04FF0FF3070BDFEF7ECF872
:101FF000054604F114010A68486850604A68086898
:1020000010604960096004F1440000F0F1F92846CD
:10201000FEF7DEF82046FFF7CBFD002070BD000084
:1020200001480068704700008C00002010B590F84F
:10203000361080F83510012202FA01F18163022185
:1020400080F83410FFF7C7FFFFF7EAFF08B1FFF78A
:102050007DFD002010BD70B5044694F8340000F0FA
:102060000F00012802D04FF0FF3070BDFEF7ACF832
:1020700005462046FFF7C4FD94F8340020F00F0019
:1020800040F0020084F8340004F1440000F0B0F99C
:102090002846FEF79DF8002070BD10B56FF00101D5
:1020A000016300F114010B684A685A604B680A68C2
:1020B0001A6049600960FFF77BFDBDE81040FFF73B
:1020C00045BD000010B5FEF77FF81749096891F883
:1020D000342002F00F02012A21D1D1F814C08B69FB
:1020E0009C451CD001F11402CCF80430D2F804C095
:1020F0001368CCF800305260126091F835200B4B19
:10210000143103EBC2025368196053684B6051608D
:102110000A60FEF75DF8FFF719FD002010BDFEF71D
:1021200057F8002010BD00008C000020503E002019
:1021300001480068704700002800002010B50948D9
:102140000168491C0160FFF76BFF016C491E0164C7
:1021500019B9C16B0164FFF7B5FFBDE8104000F08D
:1021600003B80000280000202DE9F04182B0684645
:1021700001900090FFF7DCFF8046FEF725F8074648
:1021800035480168814201D1012000E0002000288B
:102190005CD1314D6FF000462868A0F11404A06AAC
:1021A000A8EB0000B04251D22246002002EBC00151
:1021B0001431D1F800C04B68CCF80430D1F804C019
:1021C0000B68CCF8003049600960401C0128EDDB49
:1021D000607A10F0020F02D120F0010060726946AF
:1021E00004F11400009A5060009A0260009041606F
:1021F000E169206A8847FFF79BFF8046684600999F
:10220000814201D1012000E00020B0B904F11400A6
:102210000268416851604268016811604060006076
:10222000607A10F0020F08D010F0010F05D020F0F6
:1022300001006072204600F073F80748016881428F
:1022400001D1012000E000200028A5D03846FDF78C
:10225000BFFF02B0BDE8F081A000002070B50446C9
:102260000E461546FDF7B0FF052E1DD2DFE806F03D
:102270000603090E1300616A296015E0296861628E
:1022800012E0617A21F0020161720DE0617A41F0A1
:102290000201617208E0617A11F0010F02D00121A0
:1022A000296001E000212960FDF792FF002070BD48
:1022B00070B50546FDF788FF2C46002204EBC201ED
:1022C0001431D1F800C04B68CCF80430D1F804C008
:1022D0000B68CCF8003049600960521C012AEDDB24
:1022E000697A21F001016972FDF772FF2846FFF754
:1022F000CFFB002070BD2DE9F8438046089D099C66
:1023000016461F460A460A214046FFF7E9FB2B46C0
:102310003A46314640460094FEF706FDBDE8F88394
:102320002DE9F8430446FDF74FFF054622460020FD
:1023300002EBC0011431D1F800C04B68CCF8043076
:10234000D1F804C00B68CCF8003049600960401C2B
:102350000128EDDB607A20F001006072FFF7E8FEF3
:10236000616A00EB010CC4F828C01F4F00970021E0
:102370006FF00048684607EBC10350F821205E6803
:10238000B2420FD050F821201268A2EBC1035B6962
:10239000634503D0A3EB0C03434503D340F821204E
:1023A000B242EFD129B150F8212008324B1C40F83D
:1023B0002320491C0029DED00C480168491C01601B
:1023C000009804F114010268516002680A6001601B
:1023D0004860607A40F0010060722846FDF7F8FE20
:1023E0000020BDE8F8830000A00000209C00002031
:1023F00070B50446607A10F0010F1FD0FDF7E4FEBF
:1024000003462046002200EBC20114310D68D1F8CA
:1024100004C0C5F804C04D68D1F800C0C5F800C0BC
:1024200049600960521C012AEDDB607A20F001004E
:1024300060721846FDF7CCFE002070BD4FF0FF30F3
:1024400070BD0020704700207047002070470020BA
:10245000704710B5FDF7B8FEFFF744F9FFF770FCC1
:10246000FFF7E8FCFFF7B4FCFFF796F8FFF7EEFC88
:10247000FFF778FDFFF7CAFC002010BD10B5044639
:10248000FFF704F8012804D12046BDE81040FEF70C
:1024900047BF10BD0168814202D009688142FCD16A
:1024A0007047024601E0521C491C92F800C0BCF182
:1024B000000F03D00B780BB19C45F4D0101A704775
:1024C00003480188018801880188018800887047D5
:1024D0002AED00E010B5FFF733FC002010BD01022B
:1024E00002030405060708090A0B0C0D0E0F101055
:1024F00000000000000000000102030406070809B4
:1025000000000100020001000300010002000100C0
:1025100004000100020001000300010002000100AC
:10252000050001000200010003000100020001009B
:10253000040001000200010003000100020001008C
:10254000060001000200010003000100020001007A
:10255000040001000200010003000100020001006C
:10256000050001000200010003000100020001005B
:10257000040001000200010003000100020001004C
:102580000700010002000100030001000200010039
:10259000040001000200010003000100020001002C
:1025A000050001000200010003000100020001001B
:1025B000040001000200010003000100020001000C
:1025C00006000100020001000300010002000100FA
:1025D00004000100020001000300010002000100EC
:1025E00005000100020001000300010002000100DB
:1025F00004000100020001000300010002000100CC
:102600003031323334353637383961626364656668
:10261000003031323334353637383941424344455E
:10262000460068656C6C6F007361792068656C6C3E
:102630006F20776F726C640076657273696F6E00DD
:1026400073686F772052542D5468726561642076E8
:10265000657273696F6E20696E666F726D61746901
:102660006F6E005F5F636D645F76657273696F6E36
:102670000073686F772052542D546872656164202E
:1026800076657273696F6E20696E666F726D6174C4
:10269000696F6E006C6973745F7468726561640061
:1026A0006C69737420746872656164005F5F636D48
:1026B000645F6C6973745F746872656164006C69EF
:1026C000737420746872656164006C6973745F73FD
:1026D000656D006C6973742073656D6170686F72ED
:1026E0006520696E2073797374656D005F5F636D3B
:1026F000645F6C6973745F73656D006C69737420DB
:1027000073656D6170686F726520696E207379738F
:1027100074656D006C6973745F6D61696C626F786C
:10272000006C697374206D61696C20626F78206938
:102730006E2073797374656D005F5F636D645F6CA9
:102740006973745F6D61696C626F78006C69737432
:10275000206D61696C20626F7820696E20737973D7
:1027600074656D006C6973745F74696D6572006C7B
:102770006973742074696D657220696E2073797352
:1027800074656D005F5F636D645F6C6973745F7423
:10279000696D6572006C6973742074696D6572206F
:1027A000696E2073797374656D006C697374006C65
:1027B00069737420616C6C2073796D626F6C206931
:1027C0006E2073797374656D005F5F636D645F681D
:1027D000656C700052542D54687265616420736892
:1027E000656C6C2068656C702E005F5F636D645F64
:1027F0007073004C6973742074687265616473202F
:10280000696E207468652073797374656D2E005F3E
:102810005F636D645F667265650053686F772074EF
:102820006865206D656D6F727920757361676520CD
:10283000696E207468652073797374656D2E006C01
:102840006973745F6D656D006C697374206D656D7F
:102850006F727920757361676520696E666F726D3E
:102860006174696F6E0000004F240008472400085F
:1028700043240008BD0D00084B2400082226000850
:1028800028260008411000083826000840260008C5
:10289000D52400086326000871260008D524000806
:1028A00094260008A026000809120008AC2600089B
:1028B000BE26000809120008CA260008D326000810
:1028C0008D110008EC260008FB2600088D11000879
:1028D00014270008212700080F11000839270008D5
:1028E0004C2700080F110008642700086F27000814
:1028F0008F12000884270008952700088F1200080F
:10290000AA270008AF27000845100008C9270008BB
:10291000D427000859140008EA270008F327000804
:102920008B0D00080F2800081A280008810D0008E8
:102930003F280008482800088B1100085C2900087F
:1029400000000020B800000028010008142A000838
:10295000B8000020F8440000440100080100000015
:10296000100000000000000000127A0000000000CB
:102970000000000000000000000000000000000057
:102980000000000000000000000000000000000047
:102990000000000000000000000000000000000037
:1029A00000000000010000004C0000204C0000204E
:1029B00078000000020000005C0000205C000020A5
:1029C00020000000050000006C0000206C000020CA
:1029D000300000000A0000007C0000207C00002085
:1029E0002C000000000000000000000000000000BB
:1029F00000000000000000000000000000000000D7
:102A000000000000000000000000000000000000C6
:042A100000000000C2
:04000005080000ED02
:00000001FF
