:020000040800F2
:1000000090340020890100084B1000086D020008A0
:1000100049100008790500089F1200080000000040
:100020000000000000000000000000009B0100082C
:100030007B05000800000000F70100084D100008D3
:10004000A3010008A3010008A3010008A301000800
:10005000A3010008A3010008A3010008A3010008F0
:10006000A3010008A3010008A3010008A3010008E0
:10007000A3010008A3010008A3010008A3010008D0
:10008000A3010008A3010008A3010008A3010008C0
:10009000A3010008A3010008A3010008A3010008B0
:1000A000A3010008A3010008A3010008A3010008A0
:1000B000A3010008A3010008A3010008A301000890
:1000C000A3010008A3010008A3010008A301000880
:1000D000A3010008A3010008A3010008A301000870
:1000E000A3010008A3010008A301000800F002F822
:1000F00000F03AF80AA090E8000C82448344AAF188
:100100000107DA4501D100F02FF8AFF2090EBAE885
:100110000F0013F0010F18BFFB1A43F0010318473B
:100120004442000064420000103A24BF78C878C1FD
:10013000FAD8520724BF30C830C144BF04680C60ED
:10014000704700000023002400250026103A28BF35
:1001500078C1FBD8520728BF30C148BF0B60704739
:100160001FB51FBD10B510BD00F0CCF91146FFF74B
:10017000F7FF00F0FCF900F0EAF903B4FFF7F2FF33
:1001800003BC00F0EDF9000009488047094800472A
:10019000FEE7FEE7FEE7FEE7FEE7FEE7FEE7FEE737
:1001A000FEE7FEE704480549054A064B7047000094
:1001B00025110008ED000008902E0020903400204A
:1001C0009030002090300020EFF3108072B670471E
:1001D00080F310887047324A1368012B04D04FF027
:1001E000010313602F4A10602F4A11602F484FF00F
:1001F000805101607047EFF3108272B628480168A1
:1002000091B14FF0000101602648016829B1EFF378
:10021000098121E9F00F0068016023490968096834
:10022000B1E8F00F81F3098882F310884EF0040ED4
:1002300070471D4908601B494FF0000008601849CD
:100240004FF0010008601A481A49D0F8002041EA2E
:100250000201016015484FF08051016016480068A6
:10026000006880F3088861B662B670471EF0040F1C
:100270000CBFEFF30880EFF3098020E9F00F40F89E
:1002800004ED1EF0040F0CBF80F3088880F309888A
:1002900000B502F051FB5DF804EB4EF0040E704720
:1002A000B4000020AC000020B000002004ED00E00D
:1002B00020ED00E00000FFFF08ED00E010B5431C5A
:1002C00002E010F8011B71B18107FAD14FF0013241
:1002D00002C88C1A8C4314EAC211F9D0C01A0A065B
:1002E00003D0C01E10BDC01A10BD0A0401D0801E6C
:1002F00010BD0902FCD0401E10BD40EA010370B5DC
:100300009B072ED14FF00136042A2AD308C810C902
:100310009D1B9D43121F15EAC61517D0D8B2E1B236
:10032000401A50EA056110D198B2A1B2401A50EAC1
:1003300005410AD123F07F4024F07F41401A50EA62
:10034000052102D1180EA0EB146070BDA342DBD0D2
:1003500018BA21BA884201D9012070BD4FF0FF3090
:1003600070BD0AB9002070BD10F8013B11F8014BB7
:1003700063B1A3420AD1521E08D010F8013B11F814
:10038000014B1BB1A34201D1521EEDD1181B70BD10
:10039000421E12F8013F002BFBD111F8013B002B4C
:1003A00002F8013BF9D1704710B5203AC0F00B803C
:1003B000B1E81850203AA0E81850B1E81850A0E869
:1003C0001850BFF4F5AF5FEA027C24BFB1E81850C3
:1003D000A0E8185044BF18C918C0BDE810405FEA33
:1003E000827C24BF51F8043B40F8043B08BF7047AF
:1003F000D20728BF31F8023B48BF11F8012B28BFB4
:1004000020F8023B48BF00F8012B70474FF0000274
:100410000429C0F0128010F0030C00F01B80CCF116
:10042000040CBCF1020F18BF00F8012BA8BF20F884
:10043000022BA1EB0C0100F00DB85FEAC17C24BFD8
:1004400000F8012B00F8012B48BF00F8012B704782
:100450004FF0000200B5134694469646203922BF5D
:10046000A0E80C50A0E80C50B1F12001BFF4F7AFA8
:10047000090728BFA0E80C5048BF0CC05DF804EB8A
:10048000890028BF40F8042B08BF704748BF20F8F8
:10049000022B11F0804F18BF00F8012B704710B5E8
:1004A000044610F0030F08BF11F0030F40F0158051
:1004B0004FF0013E121FC0F20E8051F8043BA3EB37
:1004C0000E0C2CEA030C1CEACE1C08BF40F8043BBF
:1004D000F0D0A1F1040102F10402521E08DB11F870
:1004E000013B002B00F8013BF7D11146FFF78EFFCF
:1004F000204610BD704770477047000000487047A5
:100500002C2E00207546FFF7F9FFAE460500694620
:10051000534620F00700854618B020B5FFF742FE8D
:10052000BDE820404FF000064FF000074FF00008F4
:100530004FF0000B21F00701AC46ACE8C009ACE875
:10054000C009ACE8C009ACE8C0098D46704710B5D9
:100550000446AFF300802046BDE81040FFF70DBE13
:1005600001491820ABBEFEE726000200704710B517
:1005700003F0BAFB002010BDFEE7704772B6FEE73D
:100580002DE9F84FDFF8B8910024A9F1040B2346B8
:100590000F2709F1040AABF1040EC9E00125A540BB
:1005A0002A40AA427DD1674ED1F804C0ACEB0608C0
:1005B000B44532D014DCBCF1030F3AD009DCBCF1F5
:1005C000000F2AD0BCF1010F1CD0BCF1020F31D1B9
:1005D0001DE0BCF1110F17D0BCF1120F2AD119E0A8
:1005E000B8F5881F19D006DCB8F5803F15D0B8F5EE
:1005F000801F1FD111E0B8F5001F0ED0B8F5041F01
:1006000018D10AE0CB6815E0CB681B1D12E0CB685F
:1006100008330FE0CB680C330CE08B682BB1012B57
:100620004FF0080303D0456104E0042302E00561B4
:1006300000E00023FF2A01D8064601E000F104068D
:100640004FEA840501D9A5F12005D6F8008007FA04
:1006500005FC28EA0C0803FA05F548EA0508C6F87F
:1006600000804D68ED0062D5374DAE6946F0010659
:10067000AE61AD6924F0030605F001050095334D28
:1006800006EB050CDCF80850A607360F07FA06F84B
:1006900025EA0805DFF8B880404503D14FF000088F
:1006A00017E044E0DFF8AC80404502D14FF001088C
:1006B0000FE0DFF8A480404502D14FF0020808E0C7
:1006C000DFF89880404502D14FF0030801E04FF079
:1006D000040808FA06F848EA0508CCF808804D68CE
:1006E000D9F80060ED024D4601D5164300E096436F
:1006F0002E604D68DAF80060AD02554601D516430C
:1007000000E096432E604D68DBF80060AD035D4667
:1007100001D5164300E096432E604D68DEF8006078
:10072000ED03754601D5164300E096432E60641C28
:100730000D682A46E5407FF431AFBDE8F88F000030
:1007400008040140000011100010024000000140A8
:1007500000080140000C014000100140001401405D
:100760000AB1016170470904FBE700000148806895
:100770007047000000000020074810B5016841F0F4
:1007800010010160032000F067F8002000F006F877
:1007900000F024F8002010BD0020024070B50D4D7F
:1007A00004464FF47A712878B1FBF0F00A490968E1
:1007B000B1FBF0F000F0D4FA48B9102C07D20022B7
:1007C0002146501E00F028F800206C6070BD01200A
:1007D00070BD0000000000200C0000200C4808B58F
:1007E000816941F001018161816901F0010100919C
:1007F000C16941F08051C161C06900F08050009032
:100800000448416821F0E06141F08061416008BD29
:100810000010024000000140F0B40E4B1B680C4673
:10082000C3F30223C3F10705042D00D90425191DC4
:10083000072901D2002300E0DB1E012606FA05F19C
:10084000491E214099409E40761E16403143F0BC1F
:1008500000F026BD0CED00E0064900F00702086834
:100860004FF6FF03184040EA0220034A1043086095
:10087000704700000CED00E00000FA052DE9F0479C
:100880000F46050061D0434E306800F00700B842C3
:1008900009D2306820F0070038433060306800F03B
:1008A0000700B84251D128683B4C810712D5400758
:1008B00003D5606840F4E06060602878000703D5E5
:1008C000606840F4605060606068A96820F0F000E3
:1008D000084360602878C00728D06868012810D0D5
:1008E0002168022810D0890700292EDA616821F0DA
:1008F000030101436160FFF739FF804641F2883907
:100900000DE021688903EFE78901EDE7FFF72EFF8E
:10091000A0EB0801494502D90320BDE8F0876068D3
:10092000696800F00C00B0EB810FEFD1306800F087
:100930000700B8420BD9306820F007003843306018
:10094000306800F00700B84201D00120E5E72878C0
:10095000400705D56068E96820F4E06008436060FE
:100960002878000706D56068296920F4605040EABD
:10097000C100606000F03EF86168084AC1F30311ED
:10098000515CC8400649086006480068FFF706FF4A
:100990000020C2E70020024000100240C83E0008CC
:1009A0000C0000200400002001480068704700008F
:1009B0000C0000200448054900684968044AC1F356
:1009C0000221515CC84070470C000020001002401A
:1009D000D83E00080448054900684968044AC1F344
:1009E000C221515CC84070470C000020001002403A
:1009F000D83E00080E4A51680E4801F00C03042B43
:100A000011D0082B0FD10C48C1F38343C903C05C3C
:100A10000AD55168084AC1F34041921E515C054A0B
:100A20005043B0FBF1F07047044948437047000061
:100A30000010024000127A00B83E000800093D0094
:100A40002DE9F84F040070D02078C04DC00749D080
:100A50006868C0F38100012807D06868C0F381008E
:100A6000022809D16868C00306D52868800339D5F3
:100A700060680028E7D035E06068B0F5803F0BD0B3
:100A800010B1B0F5A02F11D0286820F48030286074
:100A9000286820F4802002E0286840F48030286034
:100AA000606890B1FFF762FE06460AE0286840F4ED
:100AB00080202860F0E700BFFFF758FE801B642805
:100AC00073D828688003F7D50CE0FFF74FFE064681
:100AD00005E000BFFFF74AFE801B6428F0D82868B5
:100AE0008003F7D420789A4E80074FF001094FF029
:100AF000000839D5686810F00C0F07D06868C0F39B
:100B00008100022809D16868C00306D428688007DC
:100B100014D52069012808D110E02069B0B1C6F8C9
:100B20000090FFF723FE074605E00AE1FFF71EFEEF
:100B3000C01B0228C4D828688007F7D528686169D7
:100B400020F0F80040EAC10028600DE0C6F80080FF
:100B5000FFF70CFE074604E0FFF708FEC01B022863
:100B600023D828688007F7D4207800072CD5794847
:100B7000A169D9B1C0F80090FFF7F8FD074604E07D
:100B8000FFF7F4FDC01B02280FD8686A8007F7D56D
:100B900071484FF4FA510068B0FBF1F0009000BFCB
:100BA0000098411E0091FAD20EE080E0C0F800806B
:100BB000FFF7DCFD074604E0FFF7D8FDC01B022865
:100BC00075D8686A8007F7D42078400760D5E8694F
:100BD0000027C00008D4E86940F08050E861E86967
:100BE000012700F0805000905C480168C90513D4CB
:100BF0000168834641F480710160FFF7B7FD8246CA
:100C000006E000BFFFF7B2FDA0EB0A0064284ED853
:100C1000DBF80000C005F5D5E06801280AD008B16E
:100C2000052813D0286A20F001002862286A20F0E5
:100C3000040002E0286A40F001002862E06841F206
:100C4000883B98B1FFF792FD82460BE0286A40F09E
:100C500004002862EEE700BFFFF788FDA0EB0A0161
:100C600059455AD8286A8007F6D50CE0FFF77EFD73
:100C7000824605E0FFF77AFDA0EB0A0159454CD802
:100C8000286A8007F6D41FB1E86920F08050E86137
:100C9000E06988B36968C1F38101022944D0022860
:100CA000C6F8608004D0FFF761FD044638E034E008
:100CB000FFF75CFD074604E0FFF758FDC01B022864
:100CC0002BD828688001F7D4206AB0F5803F05D181
:100CD0006868A16820F4003008436860D4E908011E
:100CE0000843696821F4741108436860C6F860908D
:100CF000FFF73CFD044606E025E000BFFFF736FDA8
:100D0000001B022809D828688001F7D51BE000BF26
:100D1000FFF72CFD001B022802D90320BDE8F88F45
:100D200028688001F4D40EE00128F7D06868226AB0
:100D300000F48031914204D1616A00F4701088425D
:100D400001D00120EAE70020E8E70000001002409F
:100D500000004242800442420C000020007000402B
:100D600010B5401EB0F1807F01D3012010BD4FF0BF
:100D7000E02460610F21601700F092FA0020A0616A
:100D800007202061002010BD70B5040004D094F845
:100D90004100002510B106E0012070BD84F84050EC
:100DA000204600F023F8242084F841002068C16820
:100DB00021F40051C160204600F0DCF9206801698F
:100DC00021F4904101612068416921F02A014161CB
:100DD0002068C16841F40051C1606564202084F836
:100DE000410084F842006563002070BD70B586B094
:100DF00000240094019402940394234E0368234931
:100E000002200322224DB34219D18B6943F480435F
:100E10008B618B6903F4804304938B6943F0040373
:100E20008B618969039201F0040104910102CDE90B
:100E3000001069462846FFF7A3FB28151BE0154E56
:100E4000B3421FD1CB6943F40033CB61CB6903F4C8
:100E5000003304938B6943F004038B618969039227
:100E600001F0040104910421CDE9001069462846EF
:100E7000FFF786FB0820CDE9000469462846029466
:100E8000FFF77EFB06B070BD003801400010024045
:100E900000080140004400402DE9F843044690F862
:100EA0004100984616460D46202802D00220BDE893
:100EB000F88385B17EB100206064212084F8410070
:100EC000FFF754FCA6848146E684A0682027B0F58D
:100ED000805F02D003E00120E9E7206910B12E46CF
:100EE00000250EE000260CE08021204600F09EF94F
:100EF000A8B9C6B116F8010B21684860E08C401E05
:100F0000E084E08C4B464FF00002CDF800800028D2
:100F1000EAD14FF04001204600F088F940B184F852
:100F200041700320C3E735F8020BC0F30800E3E784
:100F300084F841700020BAE72DE9F04385B0002421
:100F400022480094019402940394816941F02001A5
:100F50008161816901F020010491816941F00401FE
:100F60008161816901F004010491816941F0080106
:100F700081618069DFF8588000F008004FF4C045B7
:100F80000490002229464046FFF7EAFBDFF8449030
:100F90004FF40047002239464846FFF7E1FB112095
:100FA000CDE9005001250326CDE9025669464046A9
:100FB000FFF7E6FA00970396CDE9015469464846E3
:100FC000FFF7DEFA05B0BDE8F08300000010024034
:100FD000000C0140000801400C4810B50A490160AE
:100FE0004FF4E1314160002181600C22C160C0E911
:100FF00004128161C161FFF7C7FE002803D0BDE87C
:101000001040FFF7BBBA10BD00380140B800002007
:101010000C4810B50A4901604FF4E13141600021EC
:1010200081600C22C160C0E904128161C161FFF7D7
:10103000ABFE002803D0BDE81040FFF79FBA10BDFB
:101040000044004000010020FEE7FEE710B501F07B
:1010500093FD02F027FBBDE8104001F09BBD30B5C9
:101060008FB028216846FFF7F3F914210AA8FFF78B
:10107000EFF901210804CDE90010002402940225B3
:101080000491CDE907504FF4E01009906846FFF74E
:10109000D7FC08B172B6FEE70F20CDE90A054FF480
:1010A0008060CDE90C4002210AA80E94FFF7E6FB10
:1010B000002801D072B6FEE70FB030BD144910B55C
:1010C0004868144A10F00C03134803D0042B01D0D5
:1010D000082B09D002604968104AC1F30311515C22
:1010E0000268CA40026010BD4A684B6802F4701280
:1010F0004FF0020413F4803F04EB924202D04B689D
:101100009B0301D5064B00E0024B5A43E2E7000087
:101110000010024000127A000C000020C83E0008B7
:1011200000093D00704701680C3151E8002F22F49E
:10113000907241E80023002BF5D10168143151E889
:10114000002F22F0010241E80023002BF5D1016BB2
:10115000012909D101680C3151E8002F22F0100259
:1011600041E80023002BF5D1202180F84210002116
:101170000163704770B5044600680169E26821F4B4
:101180004051114301612169A06808436169084326
:101190002168CA6841F20C639A430243CA6020681E
:1011A0004169A26921F44071114341611E492068DF
:1011B000884202D1FFF70EFC01E0FFF7FBFB00EBDA
:1011C000C00101EB0012606864218000B2FBF0F303
:1011D000B3FBF1F36FF018067343B2FBF0F5B2FB0B
:1011E000F0F605EB8305322303EB0515B5FBF1F5AE
:1011F000B6FBF1F605F0F00505EB0615B2FBF0F6CF
:10120000B2FBF0F0B0FBF1F06FF01802504306EBC8
:10121000800003EB0010B0FBF1F0216800F00F003C
:101220002844886070BD0000003801402DE9F84373
:10123000984617460D460446089E24E0701C22D0AE
:10124000FFF794FAA0EB0800B0421AD8CEB120689C
:10125000C168490717D5802D15D0402D13D00168DE
:10126000C94309070FD40168002540680090204653
:10127000FFF759FF0820606484F840500120BDE862
:10128000F8830320FBE72068006835EA000004D0FB
:101290000020B842D2D00020F1E70120F9E7FEE7B4
:1012A0000907090E002804DB00F1E02080F8001493
:1012B000704700F00F0000F1E02080F8141D704727
:1012C000002807D00F4910F0FF0F05D0C0B2085C0E
:1012D000401C70470020704710F47F4F04D0C0F3CB
:1012E0000720085C0930704710F47F0F04D0C0F36A
:1012F0000740085C1130704701EB1060007819302E
:1013000070470000E03E0008F0B589B004460D4685
:101310001646002100E0491C635C202B03D0092BFA
:1013200001D0A942F7D3C9B1204601F00FF8074612
:10133000C7B100210091019102910391049105919F
:10134000069107916A462946204601F06DF868B17A
:101350006946B847306009B00020F0BD09B04FF0D1
:10136000FF30F0BD09B04FF0FF30F0BD09B04FF0D5
:10137000FF30F0BD70B582B011469C46089E099DB5
:10138000069B079A044604F1140040600060216245
:10139000C4F824C0A362E2622321184601F0F5FCE0
:1013A000E16AA06A104B0844021F616A206A01F0DA
:1013B000C3FBE06184F8366084F835600020A063E8
:1013C000E5632564206384F834002067606700903B
:1013D00001902346054A214604F1440002F03FFAF9
:1013E00002B0002070BD00008D330008CF3500082A
:1013F000DDF800C02CF0010C80F809C0C161026268
:1014000000218162436200EBC1021432526012601B
:10141000491C0129F7DB704770B50446FEF7D4FE7E
:101420000546216F09B1204688472846BDE870402F
:10143000FEF7CEBE10B51DA001F0F2FB1E4C2178C8
:101440001EA001F0EDFB207810F0010F02D021A0CA
:1014500001F0E6FB207810F0020F02D020A001F08E
:10146000DFFB207810F0040F02D020A001F0D8FBA1
:10147000207810F0080F02D020A001F0D1FB2078D6
:1014800010F0100F02D020A001F0CAFB207810F05D
:10149000800F06D01E480168BDE810401DA001F075
:1014A000BFBBBDE810401FA001F0BABB627573203E
:1014B0006661756C743A0A0029ED00E05343425F9F
:1014C000434653525F424653523A307825303258A1
:1014D00020000000494255534552522000000000B0
:1014E000505245434953455252200000494D5052F5
:1014F000454349534552522000000000554E535475
:101500004B4552522000000053544B45525220008C
:1015100038ED00E05343422D3E424641523A2530D9
:1015200038580A000A00000010B500F083FB0020C4
:1015300010BD10B500F062FC002010BD70B515485C
:10154000154C4FF00005416991F8211011F0020F80
:1015500008D0016949B14FF480722046FEF79FFF21
:10156000204670BD25700C4870BD00F05BFF20B1B7
:101570000AA000682060257105E00AA001682160CA
:101580008088A080A57109A10348FEF701FF0248E9
:1015900070BD000010000020480100206D7368201D
:1015A0000000000066696E73682000003E000000C5
:1015B00001F08AB90449496991F8212060F3410298
:1015C00081F821207047000010000020014A1060BF
:1015D000516070471000002030B583B0164917489D
:1015E000FFF7F4FF7821012001F08EF8144D6861B7
:1015F000D8B10A201521009101904FF48063002298
:10160000104911A001F095FE044600231A4610A1CE
:10161000686901F00BFD0120FFF7CCFF14B12046F3
:1016200001F09EFF03B0002030BD0BA001F0F8FADE
:1016300003B04FF0FF3030BD64430008A4420008FF
:101640001000002071160008747368656C6C00004F
:1016500073687278000000006E6F206D656D6F72A8
:101660007920666F72207368656C6C0A0000000058
:101670009F4E706990F8211041F0010180F821100F
:10168000FFF75CFF01F0CCFA01274FF002080025BC
:10169000FFF78EFF04462000FAD41B2C07D0736995
:1016A00093F82000012806D002280CD015E07069BC
:1016B00080F82070ECE75B2C02D083F820500CE01F
:1016C00083F82080E4E783F82050412CE0D0422CBE
:1016D000DED0442C46D0432C52D0002CD8D0FF2C46
:1016E000D6D0092C5FD07F2C7CD0082C7AD00D2C42
:1016F00076D00A2C74D0B3F87200502801D3A3F826
:101700007250B3F87400B3F87210884269D20A1AA2
:1017100003F1220101442333184401F01BFB7069DB
:10172000B0F8741022300C54706990F8211011F048
:10173000010F06D0B0F87410223001446DA001F002
:101740006FFA7069B0F87440B0F87200A0427DDDA5
:1017500069A001F065FA641C7069B0F87200A042DB
:10176000F6DCB1E0B3F87400002891D062A001F07B
:1017700057FA7069B0F87410491EA0F8741087E722
:10178000B3F87400B3F87210884281D203F12201D9
:10179000415C5AA001F044FA7069B0F87410491C19
:1017A000A0F8741074E70024B3F87400002808DD72
:1017B00051A001F035FA641C7069B0F87400A042C1
:1017C000F6DC7069223002F0A5FA70692230FEF76B
:1017D00075FD7169A1F87200A1F8740058E701E085
:1017E00043E064E0B3F8740000283FF451AFB3F86D
:1017F0007210491E89B2A3F87210401E80B2A3F87D
:101800007400814228D90A1A03F1230101442233CA
:10181000184401F09FFA7069B0F8721022300D542C
:101820007069B0F874102230014435A001F0F8F965
:101830007069B0F87440B0F87200A042FFF628AFAB
:101840002DA001F0EDF9641C706900E03CE0B0F8F7
:101850007200A042F4DA1BE72BA001F0E1F97069F5
:10186000B0F8721022300D5412E700F0DBFD0128B1
:101870000ED1706990F8210010F0010F02D023A062
:1018800001F0CEF97069B0F87210223000F02CFD32
:10189000FFF754FE01F0C4F9706950212230FEF7C1
:1018A000B5FD7069A0F87250A0F87450F0E603F12D
:1018B00022000C54706990F8210010F0010F03D041
:1018C00021460EA001F0ACF97069B0F87210491C05
:1018D00089B2A0F87210B0F87420521CA0F87420DD
:1018E0005029FFF4D5AEA0F87250A0F87450CFE69E
:1018F0001000002025730000080000002563000090
:101900000825732020080000082008000A000000B5
:1019100010B5124C206810F0020F02D010A001F098
:101920007FF9206810F0804F0ED01348007808B17E
:10193000FFF780FD1148007808B100F00FFC104857
:10194000008808B102F044FA206810F0004F04D07B
:10195000BDE810400BA001F063B910BD2CED00E014
:101960006661696C656420766563746F7220666574
:101970007463680A0000000029ED00E028ED00E033
:101980002AED00E06465627567206576656E740A0D
:101990000000000010B502A001F042F9002010BDC7
:1019A00048656C6C6F2052542D54687265616421D7
:1019B0000A00000070B50DA001F032F9104804686B
:1019C000104D286884420ED202220FA12068FEF733
:1019D00094FC20B10DA06268216801F021F90C345B
:1019E00028688442F0D3002070BD00002D2D46757C
:1019F0006E6374696F6E204C6973743A0A0000005C
:101A000010000020140000205F5F0000252D3136FB
:101A100073202D2D2025730A000000002DE9F041D0
:101A200004460D4616461F46284601F033FA001DAF
:101A3000206025726660E76000202061BDE8F081CB
:101A40002DE9F0410D46002600212961E9680029B1
:101A500009D0297A39B12F6840B10446FEF7B4FBAA
:101A6000014636B113E00020BDE8F0813C46012676
:101A7000F4E7A4F10C002A7A007A20F0800090426A
:101A800005D00846FEF7A4FB0020BDE8F081002643
:101A900068682468BC4201D1002405E0761C40F847
:101AA000044BEA68B242F4D10846FEF791FB2E617E
:101AB0002046BDE8F08100002DE9F04192B00027FA
:101AC0003DA4082304AA05210CA8FFF7A7FF4FF0A7
:101AD0000808224641463AA001F0A2F807244148EE
:101AE00001F09EF8641EFAD23FA001F099F804AE0E
:101AF0000CA93846FFF7A4FF0746002510980028D8
:101B000035DD56F82500A0F10C04FEF75DFB217AC7
:101B10009DF8382021F08001914202D0FEF758FB59
:101B200021E0FEF755FB04F11400D0F800C0844515
:101B300001D1012000E00020F8B104F114010020DF
:101B40000A468C4504D01268401C13688B42FAD1B7
:101B5000218C628C0092019102902346082241461A
:101B600028A001F05DF86D1C1098A842C9DC002F78
:101B7000BED112B00020BDE8F08104F114000023B2
:101B80000246844504D012685B1C11688142FAD178
:101B9000208C618C029300910190234608224146DB
:101BA0001EA001F03DF804F1140002F0CFF81AA0D5
:101BB00001F036F8D7E700006D61696C626F78005C
:101BC000252D2A2E7320656E7472792073697A65CB
:101BD0002073757370656E64207468726561640A41
:101BE00000000000281F0008202D2D2D2D20202D65
:101BF0002D2D2D202D2D2D2D2D2D2D2D2D2D2D2D22
:101C00002D2D0A00252D2A2E2A73202530346420FC
:101C100020253034642025640A000000252D2A2E5A
:101C20002A73202530346420202530346420256434
:101C30003A00000010B5074C07A0E16800F0F0FF83
:101C40000AA0216900F0ECFF6169BDE810400CA01A
:101C500000F0E6BF30000020746F74616C206D6589
:101C60006D6F72793A2025640A000000757365640F
:101C7000206D656D6F7279203A2025640A0000009E
:101C80006D6178696D756D20616C6C6F63617465F1
:101C900064206D656D6F72793A2025640A0000003A
:101CA0002DE9F04190B000273BA4082302AA0221AD
:101CB0000AA8FFF7B3FE4FF008082246414639A0B4
:101CC00000F0AEFF07243E4800F0AAFF641EFAD2DF
:101CD0003CA000F0A5FF02AE0AA93846FFF7B0FE0F
:101CE000074600250E98002833DD56F82500A0F1A0
:101CF0000C04FEF769FA217A9DF8302021F080016A
:101D0000914202D0FEF764FA1FE0FEF761FA04F197
:101D10001400D0F800C0844501D1012000E000206B
:101D2000E8B104F1140100200A468C4504D0126881
:101D3000401C13688B42FAD1A18B0091019023467D
:101D40000822414625A000F06BFF6D1C0E98A842AA
:101D5000CBDC002FC0D110B00020BDE8F08104F131
:101D6000140000230246844504D012685B1C1168ED
:101D70008142FAD1A08B019300902346082241466C
:101D80001AA000F04DFF04F1140001F0DFFF0BA0DA
:101D900000F046FFD9E7000073656D6170686F72EF
:101DA00065000000252D2A2E7320762020207375D3
:101DB0007370656E64207468726561640A00000067
:101DC000281F0008202D2D2D202D2D2D2D2D2D2DC2
:101DD0002D2D2D2D2D2D2D0A00000000252D2A2E14
:101DE0002A7320253033642025640A00252D2A2EED
:101DF0002A7320253033642025643A002DE9F0430E
:101E0000ADB0002745A4082320AA012128A8FFF788
:101E100005FE4FF0080822464146424800F000FF08
:101E2000072441A000F0FCFE641EFAD23FA000F09F
:101E3000F7FE20AE28A93846FFF702FE0746002528
:101E40002C98002864DD56F82500A0F10C04FEF75C
:101E5000BBF98146207A9DF8A81020F080008842C6
:101E600003D04846FEF7B4F94EE07822214602A896
:101E7000FEF79AFA4846FEF7ABF994F83500009061
:101E800023460822414639A000F0CAFE94F83400E7
:101E900000F00F01012907D0022909D061B10429FE
:101EA0000ED0032910D012E033A000F0B9FE0EE0EE
:101EB00034A000F0B5FE0AE035A000F0B1FE06E067
:101EC00036A000F0ADFE02E037A000F0A9FEA16A46
:101ED0008C469CF80000232803D11CF8010F23280E
:101EE000FBD0E26AACEB0100101A64235843B0FB4C
:101EF000F2FC236B206C01930090E0696346081AA2
:101F000081182CA000F08CFE6D1C2C98A8429ADC45
:101F1000002F8FD12DB00020BDE8F083746872656A
:101F200061640000044000082D000000202D2D2DCC
:101F300020202D2D2D2D2D2D2D202D2D2D2D2D2DF8
:101F40002D2D2D2D202D2D2D2D2D2D2D2D2D2D20DB
:101F5000202D2D2D2D2D2D20202D2D2D2D2D2D2DD8
:101F60002D2D2D202D2D2D0A00000000252D2A2E8F
:101F70002A73202533642000207265616479202053
:101F8000000000002073757370656E64000000002F
:101F900020696E69742020200000000020636C6FAF
:101FA00073652020000000002072756E6E696E67F8
:101FB0000000000020307825303878203078253037
:101FC000387820202020253032642525202020301C
:101FD000782530387820253033640A002DE9F04127
:101FE00090B000272BA4082302AA0A210AA8FFF711
:101FF00015FD4FF008082246414628A000F010FECB
:102000000724304800F00CFE641EFAD22EA000F027
:1020100007FE02AE0AA93846FFF712FD0746002464
:102020000E9800282ADD56F82400A0F10C05FEF7D2
:10203000CBF8297A9DF8302021F08001914202D01E
:10204000FEF7C6F816E0FEF7C3F8A96A686A0191C0
:1020500000902B460822414624A000F0E1FD687A5A
:1020600010F0010F03D027A000F0DAFD02E028A055
:1020700000F0D6FD641C0E98A042D4DC002FC9D11C
:1020800001F00AFB014626A000F0CAFD10B00020B6
:10209000BDE8F08174696D6572000000252D2A2E5F
:1020A000732020706572696F6469632020207469F1
:1020B0006D656F757420202020202020666C61677C
:1020C0000A000000281F0008202D2D2D2D2D2D2D5C
:1020D0002D2D2D202D2D2D2D2D2D2D2D2D2D202D4A
:1020E0002D2D2D2D2D2D2D2D2D2D0A00252D2A2E7A
:1020F0002A732030782530387820307825303878A9
:10210000200000006163746976617465640A0000F0
:1021100064656163746976617465640A0000000037
:1021200063757272656E74207469636B3A307825DA
:102130003038780A00000000FEF71EFBFEF78FFF24
:10214000FEF7FAFEFEF748FFFEF762FFFEE710B566
:1021500000F0F8FABDE81040FFF7EEBF10B51AA086
:1021600000F05EFD1D4C21781DA000F059FD207887
:1021700010F0010F02D020A000F052FD207810F0E6
:10218000020F02D01FA000F04BFD207810F0080FC6
:1021900002D01FA000F044FD207810F0100F02D0F4
:1021A0001EA000F03DFD207810F0800F06D01E48E4
:1021B0000168BDE810401DA000F032BDBDE8104030
:1021C0001EA000F02DBD00006D656D206D616E617B
:1021D0006765206661756C743A0A000028ED00E0BE
:1021E0005343425F434653525F4D4653523A307811
:1021F00025303258200000004941434356494F4C96
:10220000200000004441434356494F4C2000000049
:102210004D554E53544B4552522000004D53544B94
:10222000455252200000000034ED00E05343422D9F
:102230003E4D4D41523A253038580A000A00000000
:102240002DE9F04781460025002699F80000002876
:102250000ED020480468DFF88080D8F8000084425F
:102260002DD206221DA12068FEF747F810BB05E01D
:10227000BDE8F0470021084600F096B82068871DA9
:102280004846FEF71BF8024639464846FEF735F841
:1022900080B925B93E463046FEF710F80546394666
:1022A000304601F06BFDA84200DA054639460DA024
:1022B00000F0B6FC0C34D8F800008442D1D3002ED4
:1022C00006D02A4631464846BDE8F04700F084BFB4
:1022D000BDE8F08710000020140000205F5F636DF0
:1022E000645F000025730A0038B5054601E06D1CE7
:1022F000491E21B128782028F9D00928F7D031B11A
:102300006A462846FFF700F818B12C4604E0002082
:1023100038BD009838BD641C2078202801D00028E2
:10232000F9D100202070294602A000F079FC4FF07E
:10233000FF3038BD25733A20636F6D6D616E642088
:102340006E6F7420666F756E642E0A002DE9F0477B
:1023500081468846002610480468104F3868844239
:1023600015D208F1060506220DA12068FDF7C5FF6C
:1023700048B920684246801D4946FDF7BEFF10B9A6
:102380002068405D30B10C3438688442EBD330466D
:10239000BDE8F087A668FAE71000002014000020CE
:1023A0005F5F636D645F000070B50FA000F038FCE4
:1023B00014480468144D286884420FD2062213A1E1
:1023C0002068FDF79AFF28B920686268811D11A076
:1023D00000F026FC0C3428688442EFD310A000F0F3
:1023E0001FFC002070BD000052542D5468726561BE
:1023F00064207368656C6C20636F6D6D616E6473CF
:102400003A0A000010000020140000205F5F636D96
:10241000645F0000252D313673202D2025730A00BE
:102420000A0000000120704770B515460023002403
:10243000002950D9002602E00670401C5B1C90F871
:1024400000C0BCF1200F02D0BCF1090F01D18B42BA
:10245000F2D3082C0FD321A000F0E2FB002627A026
:1024600055F8261000F0DCFB761CA642F7D322A01C
:1024700000F0D6FB2FE08B422DD20278222A03D027
:1024800045F82400641C1BE0401C5B1C45F824003C
:10249000641C08E05C2A04D14278222A01D1401C45
:1024A0005B1C401C5B1C0278222A01D08B42F1D3BA
:1024B0008B4210D20670401C5B1C0AE0401C5B1C67
:1024C0000278202A03D0092A01D08B42F6D38B420E
:1024D00001D28B42B3D3204670BD0000546F6F20F1
:1024E0006D616E7920617267732021205765206FBE
:1024F0006E6C79205573653A0A0000002573200040
:1025000010B4DFF860C04168DCF80020114402F12B
:102510000803884210D04C8874B9DCF80440A1420A
:102520000AD0DCF808408C4201D1CCF808004C6895
:1025300044604968841ACC508168114481420FD0AC
:102540004C88002C0CD1DCF80840844201D1CCF836
:102550000810D0F804C0C1F804C04068891AC150FE
:1025600010BC7047300000202DE9F04F86B0DDF838
:102570003CC0109D119CA846CDF800C014F0400F3F
:1025800002D0DFF848A101E0DFF844A114F0100FF9
:1025900001D024F0010414F0010F02D04FF03009F3
:1025A00001E04FF02009002614F0020F0DD0002AA0
:1025B00002DA2D26524208E014F0040F01D02B2637
:1025C00003E014F0080F00D020264FF0000C0DF1AE
:1025D000040B2AB930224FF0010C8DF804200DE0D5
:1025E0000A2B16D002F00F0712091AF807E0674607
:1025F0000CF1010C0BF807E0002AF1D1AC4500DD2D
:102600006546009A521B14F0110F4FF020070DD0B1
:102610001CE0304FA7FB02E74FEAD70ECEF10007D0
:1026200007EB870702EB47077246DEE716B1002A81
:1026300000DD521E131EA2F1010207DD884200D206
:102640000770401C131EA2F10102F7DC26B188427C
:1026500000D20670521E401C14F0100F0CD1131E35
:10266000A2F1010208DD884201D280F80090401CEE
:10267000131EA2F10102F6DC6B1E65450FDD30244E
:10268000884200D20470401C1D465B1E6545F7DC85
:1026900005E0884202D21BF80C300370401CBCF1EC
:1026A0000003ACF1010C02DDB8F1000FF1D1531EB3
:1026B000002A07DD884200D20770401C1A1EA3F1D1
:1026C0000103F7DC06B0BDE8F08F0000F13F000821
:1026D000E03F0008CDCCCCCC00B583B014200A215B
:1026E000009101904FF480730022044904A000F08F
:1026F00020FE03B05DF804EB00F032BF4F2100086C
:102700006D61696E0000000070B54843044600F03A
:1027100099FA0546280003D02246002100F035FB37
:10272000284670BD70B5054C054DAC4204D22068FA
:102730008047241DAC42FAD370BD000090420008CF
:102740009842000870B5054C054DAC4204D2206893
:102750008047241DAC42FAD370BD000098420008A7
:10276000A042000810B5FDF72FFD04494A88521C0D
:102770004A80BDE81040FDF72BBD00008800002016
:1027800010B5FDF721FD0B4C6188491E09B261802F
:1027900000290ADC00216180FDF71AFD606800282D
:1027A00007D0BDE8104000F0BDBBBDE81040FDF70C
:1027B0000FBD10BD8800002070B5002834D01B4D1F
:1027C0002968884230D3696888422DD2A0F10C0470
:1027D0004FF0FF31164800F066FC608818B1208881
:1027E000B0F5F55F08D013A000F01AFA23886288CC
:1027F000214617A000F014FA002060804FF4F55035
:102800002080A868844200D2AC6029686068611AA0
:10281000401A2969081A28612046FFF771FEBDE8B1
:102820007040034800F013BC70BD00003000002071
:102830000C2D0020746F2066726565206120626136
:1028400064206461746120626C6F636B3A0A0000FB
:102850006D656D3A203078253038782C2075736599
:102860006420666C61673A2025642C206D6167697D
:102870006320636F64653A203078253034780A002D
:10288000004870474C020020004870474C2A002046
:1028900010B5FDF771FFFEF7E2FBFEF70FFCFEF748
:1028A00083F84FF47A71B0FBF1F0FEF759FAFFF7B5
:1028B00039FFFFF7E9FF0446FFF7E2FF2146BDE8D5
:1028C000104000F09FBC000010B54FF0FF340748E7
:1028D0000068016811F0200F02D04068C4B202E025
:1028E0000A2000F0EAFDE0B210BD00004C2A0020F2
:1028F000F8B5054600240D2000900E49002081F80F
:102900004000284600F060FC0646300011D0285DEB
:102910000A2805D101231A4669460648FEF7BCFA83
:10292000012329191A460348FEF7B6FA641CB4427B
:10293000EDD3F8BD4C2A002070B505462C1D2E485D
:102940000168002903D028468847002852D02BA0D0
:10295000E16B00F065F92DA0216A00F061F92FA06C
:10296000616A00F05DF931A0A16A00F059F933A065
:10297000E16A00F055F935A0216800F051F937A05F
:10298000616800F04DF939A0A16800F049F93BA059
:10299000E16800F045F93DA0216900F041F93FA050
:1029A000616900F03DF941A0A16900F039F943A047
:1029B000E16900F035F945A0216B00F031F947A03D
:1029C000616B00F02DF949A0A16B00F029F928787E
:1029D00010F0040F08D000F09BFD014647A000F066
:1029E0001FF9FFF70BFA02E04CA000F019F9FEF70F
:1029F0008FFFFEE770BD0000A80000207073723AE0
:102A0000203078253038780A000000007230303AE3
:102A1000203078253038780A000000007230313AD2
:102A2000203078253038780A000000007230323AC1
:102A3000203078253038780A000000007230333AB0
:102A4000203078253038780A000000007230343A9F
:102A5000203078253038780A000000007230353A8E
:102A6000203078253038780A000000007230363A7D
:102A7000203078253038780A000000007230373A6C
:102A8000203078253038780A000000007230383A5B
:102A9000203078253038780A000000007230393A4A
:102AA000203078253038780A000000007231303A42
:102AB000203078253038780A000000007231313A31
:102AC000203078253038780A000000007231323A20
:102AD000203078253038780A00000000206C723AE7
:102AE000203078253038780A000000002070633AE2
:102AF000203078253038780A000000006861726460
:102B0000206661756C74206F6E20746872656164F4
:102B10003A2025730D0A0D0A0000000068617264F6
:102B2000206661756C74206F6E2068616E646C65E0
:102B3000720D0A0D0A00000030B40546101D20F089
:102B40000700A0F1400420460022DFF828C040F82A
:102B500022C0521C102AFAD3016200214162816214
:102B6000C1620163436385634FF08071C163204696
:102B700030BC7047EFBEADDE10B5FDF725FB044954
:102B80000A78521C0A70BDE81040FDF721BB000016
:102B90002C00002010B5FDF717FB04490A78521EDF
:102BA0000A70BDE81040FDF713BB00002C000020A8
:102BB00070B504460D461646284600F0E6FC16B1F0
:102BC000012E2BD108E005F11400616808606168EE
:102BD00041606060046021E02068A04214D095F854
:102BE0003510A0F1140292F83530994209D214320E
:102BF00005F1140351680B605168596053601A6005
:102C000002E00068A042ECD1A04207D105F1140017
:102C1000616808606168416060600460002070BDA8
:102C20000FB408B503AB0093FF210548029A00F0EA
:102C3000BDFE0348FFF75CFE01B05DF814FB000029
:102C40000C2C00202DE9F047002809D0C01C20F0F2
:102C500003053E4EF068854205D90020BDE8F087A7
:102C60000020BDE8F0870C2D00D20C254FF0FF317D
:102C7000374800F018FAD6F808C03168ACEB01000C
:102C8000F7687B1B83425BD90C186288002A54D1F9
:102C90006268121A0C3AAA424FD3626805F118030F
:102CA000121A0C3A4FF001094FF4F5589A4223D307
:102CB000421902F10C03CA18A2F800804FF0000A72
:102CC000A2F802A0D4F804A0C2F804A09060636047
:102CD000A4F80290506807F10C02904202D001F172
:102CE000080283503069324628440C303061536901
:102CF00083420DD250610BE0A4F802906068621A22
:102D0000801A3269104430617269824200D2706167
:102D1000A4F80080644503D008E040680844B0602F
:102D2000B068428812B172689042F6D1084800F04B
:102D30008EF904F10C00BDE8F08760688342A3D8E7
:102D4000034800F084F90020BDE8F087300000203F
:102D50000C2D00200346184681420DD201EB020CD7
:102D60009C4509D99918521E05D31CF8013D01F85C
:102D7000013D521EF9D27047521EFCD311F801CB0F
:102D800003F801CB521EF9D27047034601F0FF0C45
:102D9000042A1CD310F0030F19D101464CEA0C236E
:102DA00043EA0343102A0AD341F8043B41F8043BA9
:102DB00041F8043B41F8043B103A102AF4D2042AAB
:102DC00004D341F8043B121F042AFAD20B46511EC9
:102DD00005D30CF0FF0203F8012B491EFBD270470C
:102DE0002DE9F04106460F46304600F053F80546FF
:102DF000E868FFF727FF0446E4B100212046EA68AF
:102E0000FFF7C3FF26720020607208223946204671
:102E100000F0E2F9FDF7D8F9291D04F10C020B6866
:102E20005A600B6813600A605160FDF7D1F92046C3
:102E3000BDE8F0810020BDE8F08110B50446002017
:102E40002072FDF7C1F904F10C010B684A685A6061
:102E50004B680A681A6049600960FDF7B9F92046B5
:102E6000BDE81040FFF7A8BC10B504460020207252
:102E7000FDF7AAF9014604F10C00036842685A60A4
:102E8000436802681A6040600060BDE81040084670
:102E9000FDF79EB90021074A02EB01131B7883421C
:102EA00002D102EB01107047491C0429F4DB002019
:102EB00070470000480000202DE9F04105460E460D
:102EC00017463046FFF7E6FF0446FFF74BFC606805
:102ED000211D884202D000688842FCD1FFF750FCD7
:102EE00046F08000287208223946284600F074F91E
:102EF000FDF76AF90246201D05F10C0103685960CF
:102F000003680B6001604860BDE8F0411046FDF7C2
:102F10005FB9007A10F0800F01D0012070470020C7
:102F20007047000070B5FDF74FF90546134C6088F7
:102F3000A8B9A068FEF7C4F9421E114850F8320043
:102F4000A0F114016368994209D0227061600D48B4
:102F5000007848B11C3103F11C00FDF73CF928460C
:102F6000BDE87040FDF734B91C3103F11C00FDF7DA
:102F700032F92846BDE87040FDF72AB988000020E4
:102F80002C2D00202C00002010B50446FDF71CF964
:102F9000024694F8340020F00F0040F0010084F85D
:102FA000340094F835000A4901EBC00104F1140023
:102FB0004B6818604B684360486001600548A16B2E
:102FC000836819438160BDE810401046FDF700B9E1
:102FD0002C2D00208800002010B50446FDF7F4F8E1
:102FE000024604F114010B68486858604B68086891
:102FF00018604960096094F835000A4901EBC00087
:103000000168814201D1012000E0002028B106487A
:10301000A16B836823EA01018160BDE8104010467E
:10302000FDF7D6B82C2D00208800002070B504468E
:1030300015461E460A4602212046FFF73DFF04F1D1
:10304000140149600960A5836672002070BD70B5E7
:1030500004460025FDF7B8F8064604F1140001689F
:10306000814201D1012000E0002038B1A08B4FF651
:10307000FF7188420DD2401CA08304E0A1F114002E
:1030800000F022FA01253046FDF7A2F8012D06D006
:1030900007E03046FDF79CF86FF0020070BDFFF7C7
:1030A00041FF002070BD73B50446FDF78DF806465C
:1030B000A08B28B1401EA0833046FDF789F821E09F
:1030C000019810B300F024FA054600202863627AC4
:1030D000294604F11400FFF76BFD0198002809DD73
:1030E00001AA002105F1440000F06CFB05F1440049
:1030F00000F0CAFB3046FDF76BF8FFF713FF286BB3
:10310000002800D1002002B070BD3046FDF760F805
:1031100002B06FF0010070BD08B509A0FFF780FD97
:103120000AA0FFF77DFD12A00090052301220321D4
:1031300012A0FFF775FDBDE8084018A0FFF770BDAD
:103140000A205C207C202F0A000000002D20525411
:10315000202D2020202020546872656164204F704B
:1031600065726174696E672053797374656D0A00C6
:103170004D6179202038203230323600202F207CDB
:10318000205C202020202025642E25642E2564200C
:103190006275696C642025730A00000020323030AB
:1031A00036202D203230323020436F7079726967BB
:1031B00068742062792072742D746872656164206D
:1031C0007465616D0A000000014600E0491C0A7840
:1031D000002AFBD1081A7047002A09D0034611F8CB
:1031E00001CB03F801CBBCF1000F02D0521EF6D187
:1031F0007047511EFCD0002203F8012B491EFBD161
:103200007047000010B50A46C11C21F0030122F0EE
:103210000303182B22D9A3F1180C8C451ED3124C92
:10322000581A1838E06021604FF4F5530B8000F114
:103230000C024A600020886048804868084460604A
:10324000038001214180426082600023012207A1A6
:103250000848FFF7EBFE2068A06010BD0146BDE8FE
:10326000104005A0FFF7DCBC3000002068656170ED
:10327000000000000C2D00206D656D20696E6974E2
:103280002C206572726F7220626567696E206164BE
:10329000647265737320307825782C20616E642009
:1032A000656E64206164647265737320307825787C
:1032B0000A0000000B4B4FF0000CA3F802C00020E6
:1032C000094A02EBC00149600960401C2028F8DB74
:1032D0001F201870C3F804C0C3F808C0034840603A
:1032E00000607047880000202C2D002094000020F2
:1032F00010B5074CA068FDF7E3FF401E054951F8E3
:10330000300014386060BDE810401C30FCF791BFFD
:10331000880000202C2D00200020044A02EBC00170
:1033200049600960401C0028F8D07047A0000020C8
:1033300070472DE9F04784B080460D9D0C9C89466E
:1033400092461E4641460120FFF74AFD07463800D7
:1033500011D03046FFF776FC88B1009053464A46BC
:1033600041460196039502943846FEF703F804B0EF
:103370003846BDE8F08704B00020BDE8F087384645
:10338000FFF75BFD04B00020BDE8F08770B515487D
:103390000468FCF719FF05462046FEF73DF8204675
:1033A000FFF71AFE042084F8340004F1440000F012
:1033B00033FA2046FFF7ADFD01280FD00A4904F18A
:1033C00014000A6850600A68026008604160FFF7F4
:1033D000A9FD2846BDE87040FCF7FABE2046FFF77D
:1033E00043FDF4E78C0000209400002000F002F878
:1033F000FCE7000070B5134C17E0012100E000214C
:10340000D9B12168A1F114060A68486850604A6879
:103410000868106049600960B06AFFF7CDF930466E
:10342000FFF70BFD2846FCF7D3FEFCF7CDFE054663
:10343000044908688842E2D0DFE72846BDE87040CA
:10344000FCF7C6BE9400002000B585B02020C20065
:103450001F21084B00930192029103900023064A1A
:1034600006A1084800F010F805B006485DF804EB26
:1034700000F076B80C2B0020ED3300087469646C02
:1034800065000000942A00202DE9F04F85B00EACB5
:103490008146F0CC884692469B46424601214846EA
:1034A000FFF70AFD8DE8F0005B465246414648466C
:1034B000FDF760FF05B0BDE8F08F10B500F0D2F861
:1034C000BDE8104000F02AB870B5044694F8340006
:1034D00000F00F00022802D04FF0FF3070BDFCF763
:1034E00073FE054604F114010A68486850604A6892
:1034F000086810604960096004F1440000F02CFA8B
:103500002846FCF765FE2046FFF73EFD002070BD13
:1035100001480068704700008C00002031B5FCF7BE
:1035200053FE05460D480468204600F02EF86A4612
:10353000002104F1440000F045F904F1440000F0DA
:10354000A3F92846FCF744FEFFF7ECFC206B10F1D2
:10355000020F01D100202063002038BD8C00002024
:1035600010B590F8361080F83510012202FA01F1FA
:103570008163022180F83410FFF7A6FFFFF7C8FF30
:1035800008B1FFF7CFFC002010BD70B5044694F8D9
:10359000340000F00F00012802D04FF0FF3070BD62
:1035A000FCF712FE05462046FFF716FD94F834009E
:1035B00020F00F0040F0020084F8340004F14400D1
:1035C00000F0CAF92846FCF703FE002070BD10B5D4
:1035D0006FF00101016300F114010B684A685A6041
:1035E0004B680A681A6049600960FFF7CDFCBDE8C6
:1035F0001040FFF797BC000010B5FCF7E5FD174938
:10360000096891F8342002F00F02012A21D1D1F883
:1036100014C08B699C451CD001F11402CCF8043015
:10362000D2F804C01368CCF800305260126091F8F0
:1036300035200B4B143103EBC202536819605368F9
:103640004B6051600A60FCF7C3FDFFF76BFC002084
:1036500010BDFCF7BDFD002010BD00008C00002057
:103660002C2D0020002802DA4FF0FF3070474FF475
:103670007A7190FBF1F24A4390FBF1F301FB1300E6
:1036800000EB4003C3EBC0104B1E03EBC00090FBEC
:10369000F1F01044704700000148006870470000D6
:1036A0002800002010B509480168491C0160FFF797
:1036B0002FFF016C491E016419B9C16B0164FFF74A
:1036C0009BFFBDE8104000F003B800002800002078
:1036D0002DE9F04182B0684601900090FFF7DCFFD1
:1036E0008046FCF771FD074635480168814201D1EB
:1036F000012000E0002000285CD1314D6FF0004631
:103700002868A0F11404A06AA8EB0000B04251D2CE
:103710002246002002EBC0011431D1F800C04B68F2
:10372000CCF80430D1F804C00B68CCF80030496004
:103730000960401C0128EDDB607A10F0020F02D115
:1037400020F001006072694604F11400009A506094
:10375000009A026000904160E169206A8847FFF7A3
:103760009BFF804668460099814201D1012000E01C
:103770000020B0B904F11400026841685160426849
:103780000168116040600060607A10F0020F08D09C
:1037900010F0010F05D020F001006072204600F00B
:1037A00073F807480168814201D1012000E0002040
:1037B0000028A5D03846FCF70BFD02B0BDE8F0812B
:1037C000A000002070B504460E461546FCF7FCFC30
:1037D000052E1DD2DFE806F00603090E1300616A0C
:1037E000296015E02968616212E0617A21F0020126
:1037F00061720DE0617A41F00201617208E0617A64
:1038000011F0010F02D00121296001E0002129609F
:10381000FCF7DEFC002070BD70B50546FCF7D4FC5B
:103820002C46002204EBC2011431D1F800C04B68D1
:10383000CCF80430D1F804C00B68CCF800304960F3
:103840000960521C012AEDDB697A21F001016972DD
:10385000FCF7BEFC2846FFF707FB002070BD2DE9F2
:10386000F8438046089D099C16461F460A460A21D1
:103870004046FFF721FB2B463A463146404600942E
:10388000FDF7B6FDBDE8F8832DE9F8430446FCF7E3
:103890009BFC05462246002002EBC0011431D1F802
:1038A00000C04B68CCF80430D1F804C00B68CCF8E9
:1038B000003049600960401C0128EDDB607A20F08F
:1038C00001006072FFF7E8FE616A00EB010CC4F8CA
:1038D00028C01F4F009700216FF00048684607EB93
:1038E000C10350F821205E68B2420FD050F8212069
:1038F0001268A2EBC1035B69634503D0A3EB0C0321
:10390000434503D340F82120B242EFD129B150F80A
:10391000212008324B1C40F82320491C0029DED00E
:103920000C480168491C0160009804F11401026808
:10393000516002680A6001604860607A40F00100EE
:1039400060722846FCF744FC0020BDE8F8830000C4
:10395000A00000209C00002070B50446607A10F0A2
:10396000010F1FD0FCF730FC03462046002200EB7D
:10397000C20114310D68D1F804C0C5F804C04D6807
:10398000D1F800C0C5F800C049600960521C012A86
:10399000EDDB607A20F0010060721846FCF718FC3D
:1039A000002070BD4FF0FF3070BD00002DE9FF4FCB
:1039B00083B006460F461446F5193046854203D2B9
:1039C0004FF0FF35C6F1FF372178002900F05C8108
:1039D0006FF02F094FF020084FF0250A2178252994
:1039E00005D0A84200D20170401C00F048B9002167
:1039F000641C23782D2B1ED02B2B1FD0202B20D0E6
:103A0000232B21D0302B22D04FF0FF3294F800C06E
:103A1000ACF1300CBCF10A0F1CD20022234602EBA1
:103A200082021B7809EB4202641C1A442378303B63
:103A30000A2BF3D31AE041F01001D9E741F0040159
:103A4000D6E741F00801D3E741F02001D0E741F08B
:103A50000101CDE72A2B09D1641C069B53F8042BE6
:103A60000693002A02DA524241F010014FF0FF3B68
:103A700023782E2B22D1641C2378A3F1300CBCF1C7
:103A80000A0F0FD24FF0000B23460BEB8B0C1B7869
:103A900009EB4C0C641C03EB0C0B2378303B0A2B1A
:103AA000F2D306E02A2B04D1641C069B53F804BB16
:103AB0000693BBF1000F01DA4FF0000B4FF0000E40
:103AC0002378682B01D06C2B01D19E46641C0A23FD
:103AD00094F800C0BCF16F0F7ED011DCBCF1630F15
:103AE00027D006DCBCF1250F77D0BCF1580F13D1DD
:103AF000ABE0BCF1640F71D0BCF1690F0CD1A8E050
:103B0000BCF1700F6BD0BCF1730F35D0BCF1750FE9
:103B100066D0BCF1780F7BD0A84201D280F800A01B
:103B2000401C2178002974D0A84200D20170401CAA
:103B3000A5E011F0100F0AD1521E002A07DDA8429D
:103B400001D280F80080401C521E002AF7DC069942
:103B500011F8043B0691D9B2A84200D20170401C72
:103B6000511E002953DDA84201D280F80080401C7C
:103B7000491E0029F7DC82E0DDF818C05CF8043B40
:103B8000CDF818C003B952A34FF0000C01E00CF1BE
:103B9000010C944504D013F80CE0BEF1000FF6D1EF
:103BA000BBF1000F02DDDC4500DDDC4611F0100F3B
:103BB0000CD11146521E614508DDA84201D280F8A1
:103BC0000080401C1146521E6145F6DC0021BCF10C
:103BD000000F10DDA84204E035E02EE039E019E0E6
:103BE00039E003D293F800B080F800B0401C5B1CB1
:103BF000491C6145EEDB511E624540DDA84201D201
:103C000080F80080401C0A46491E6245F6DC36E01A
:103C10001DE03FE0B2F1FF3F02D1082241F0010177
:103C2000CDF804B0029106990092102351F8042BAC
:103C300006912946FEF798FC21E0A84201D280F8BF
:103C400000A0401C1BE0082305E041F040011023C8
:103C500001E041F00201BEF16C0F1DD0BEF1680F12
:103C600021D0DDF818E05EF804CBCDF818E0009222
:103C70000291CDF804B062462946FEF775FC641C3B
:103C8000217800297FF4AAAEEFB10021A84218D212
:103C9000017018E0641EF2E7DDF818E05EF804CB6E
:103CA000CDF818E0E3E7DDF818C03CF804EBCDF8F8
:103CB00018C01FFA8EFC11F0020FD8D00FFA8CFC3E
:103CC000D5E705F8011C07B0801BBDE8F08F0000A8
:103CD000284E554C4C2900000020704700207047AA
:103CE000002070470020704710B5FCF76DFAFEF712
:103CF000CFFDFFF711FAFFF70FFBFFF7DBFAFEF737
:103D0000EBFCFFF715FBFFF79FFBFFF7F1FA002035
:103D100010BD000010B5044609A0FEF781FFFEF7B4
:103D200081FB012802D12046FEF78AFAFDF706FC46
:103D300022460146BDE8104002A0FEF771BF000018
:103D40000A000000257325730000000070B50546C9
:103D50002C68AC420DD0A4F1140106A0FEF760FF60
:103D60002068A84202D004A0FEF75AFF2468AC42A3
:103D7000F1D170BD257300002F000000024601E064
:103D8000521C491C92F800C0BCF1000F03D00B7804
:103D90000BB19C45F4D0101A7047000010B50B48C9
:103DA000094901604FF4E131416000218160C16047
:103DB00001610C2242618161C161FCF7E5FF00B144
:103DC000FEE7002010BD0000003801404C2A002012
:103DD00010B51BA0FEF724FF1D4C21881DA0FEF787
:103DE0001FFF208810F0010F02D020A0FEF718FF5F
:103DF000208810F0020F02D01FA0FEF711FF2088CC
:103E000010F0040F02D01FA0FEF70AFF208810F068
:103E1000080F02D01DA0FEF703FF208810F4807F5A
:103E200002D01CA0FEF7FCFE208810F4007F02D018
:103E30001BA0FEF7F5FEBDE8104004A0FEF7F0BEA3
:103E40007573616765206661756C743A0A000000DD
:103E50002AED00E05343425F434653525F554653B9
:103E6000523A30782530325820000000554E4445F3
:103E700046494E5354522000494E565354415445DE
:103E800020000000494E5650432000004E4F435042
:103E900020000000554E414C49474E45442000004B
:103EA00044495642595A45524F20000010B5FFF779
:103EB00033F9002010BD01020203040506070809BA
:103EC0000A0B0C0D0E0F1010000000000000000087
:103ED00001020304060708090000000001020304B0
:103EE00000000100020001000300010002000100C7
:103EF00004000100020001000300010002000100B3
:103F000005000100020001000300010002000100A1
:103F10000400010002000100030001000200010092
:103F20000600010002000100030001000200010080
:103F30000400010002000100030001000200010072
:103F40000500010002000100030001000200010061
:103F50000400010002000100030001000200010052
:103F6000070001000200010003000100020001003F
:103F70000400010002000100030001000200010032
:103F80000500010002000100030001000200010021
:103F90000400010002000100030001000200010012
:103FA0000600010002000100030001000200010000
:103FB00004000100020001000300010002000100F2
:103FC00005000100020001000300010002000100E1
:103FD00004000100020001000300010002000100D2
:103FE000303132333435363738396162636465666F
:103FF0000030313233343536373839414243444565
:1040000046000000252D2A2E73207072692020732F
:10401000746174757320202020202073702020206C
:104020002020737461636B2073697A65206D6178F9
:104030002075736564206C656674207469636B20F9
:10404000206572726F720A0068656C6C6F00736134
:10405000792068656C6C6F20776F726C6400766590
:104060007273696F6E0073686F772052542D5468B5
:10407000726561642076657273696F6E20696E6621
:104080006F726D6174696F6E005F5F636D645F7600
:10409000657273696F6E0073686F772052542D5488
:1040A00068726561642076657273696F6E20696EEF
:1040B000666F726D6174696F6E006C6973745F74A2
:1040C0006872656164006C697374207468726561FC
:1040D00064005F5F636D645F6C6973745F746872C2
:1040E000656164006C697374207468726561640052
:1040F0006C6973745F73656D006C697374207365AC
:104100006D6170686F726520696E20737973746574
:104110006D005F5F636D645F6C6973745F73656D81
:10412000006C6973742073656D6170686F726520CF
:10413000696E2073797374656D006C6973745F6D5B
:1041400061696C626F78006C697374206D61696C71
:1041500020626F7820696E2073797374656D005FDB
:104160005F636D645F6C6973745F6D61696C626FCE
:1041700078006C697374206D61696C20626F7820BF
:10418000696E2073797374656D006C6973745F7404
:10419000696D6572006C6973742074696D65722055
:1041A000696E2073797374656D005F5F636D645F22
:1041B0006C6973745F74696D6572006C69737420E7
:1041C00074696D657220696E2073797374656D0012
:1041D0006C697374006C69737420616C6C20737902
:1041E0006D626F6C20696E2073797374656D005F0A
:1041F0005F636D645F68656C700052542D54687223
:10420000656164207368656C6C2068656C702E0055
:104210005F5F636D645F7073004C697374207468D2
:10422000726561647320696E2074686520737973A8
:1042300074656D2E005F5F636D645F667265650017
:1042400053686F7720746865206D656D6F72792093
:10425000757361676520696E207468652073797372
:1042600074656D2E006C6973745F6D656D006C69AB
:104270007374206D656D6F72792075736167652049
:10428000696E666F726D6174696F6E00E53C00085F
:10429000DD3C00089D3D0008D93C0008D915000808
:1042A000E13C0008484000084E400008951900080D
:1042B0005E40000866400008AD3E000889400008E6
:1042C00097400008AD3E0008BA400008C64000080C
:1042D000FD1D0008D2400008E4400008FD1D000854
:1042E000F0400008F9400008A11C00081241000835
:1042F00021410008A11C00083A410008474100087C
:10430000B91A00085F41000872410008B91A000894
:104310008A41000895410008DD1F0008AA410008F5
:10432000BB410008DD1F0008D0410008D54100084E
:10433000B5190008EF410008FA410008A923000858
:1043400010420008194200083315000835420008E1
:104350004042000829150008654200086E42000826
:10436000351C00088443000800000020B80000004D
:10437000280100083C440008B8000020D8330000A1
:1043800044010008010000001000000000000000CF
:1043900000127A0000000000000000000000000091
:1043A000000000000000000000000000000000000D
:1043B00000000000000000000000000000000000FD
:1043C00000000000000000000000000001000000EC
:1043D0004C0000204C00002078000000020000008B
:1043E0005C0000205C0000202000000005000000B0
:1043F0006C0000206C000020300000000A0000006B
:104400007C0000207C0000202C0000000000000048
:10441000000000000000000000000000000000009C
:10442000000000000000000000000000000000008C
:0C44300000000000000000000000000080
:04000005080000ED02
:00000001FF
